{
  "_format": "hh-sol-artifact-1",
  "contractName": "MeetingSBT",
  "sourceName": "contracts/MeetingSBT.sol",
  "abi": [
    {
      "inputs": [],
      "stateMutability": "nonpayable",
      "type": "constructor"
    },
    {
      "anonymous": false,
      "inputs": [
        {
          "indexed": true,
          "internalType": "address",
          "name": "owner",
          "type": "address"
        },
        {
          "indexed": true,
          "internalType": "address",
          "name": "approved",
          "type": "address"
        },
        {
          "indexed": true,
          "internalType": "uint256",
          "name": "tokenId",
          "type": "uint256"
        }
      ],
      "name": "Approval",
      "type": "event"
    },
    {
      "anonymous": false,
      "inputs": [
        {
          "indexed": true,
          "internalType": "address",
          "name": "owner",
          "type": "address"
        },
        {
          "indexed": true,
          "internalType": "address",
          "name": "operator",
          "type": "address"
        },
        {
          "indexed": false,
          "internalType": "bool",
          "name": "approved",
          "type": "bool"
        }
      ],
      "name": "ApprovalForAll",
      "type": "event"
    },
    {
      "anonymous": false,
      "inputs": [
        {
          "indexed": true,
          "internalType": "address",
          "name": "previousOwner",
          "type": "address"
        },
        {
          "indexed": true,
          "internalType": "address",
          "name": "newOwner",
          "type": "address"
        }
      ],
      "name": "OwnershipTransferred",
      "type": "event"
    },
    {
      "anonymous": false,
      "inputs": [
        {
          "indexed": false,
          "internalType": "address",
          "name": "account",
          "type": "address"
        }
      ],
      "name": "Paused",
      "type": "event"
    },
    {
      "anonymous": false,
      "inputs": [
        {
          "indexed": true,
          "internalType": "address",
          "name": "from",
          "type": "address"
        },
        {
          "indexed": true,
          "internalType": "address",
          "name": "to",
          "type": "address"
        },
        {
          "indexed": true,
          "internalType": "uint256",
          "name": "tokenId",
          "type": "uint256"
        }
      ],
      "name": "Transfer",
      "type": "event"
    },
    {
      "anonymous": false,
      "inputs": [
        {
          "indexed": false,
          "internalType": "address",
          "name": "account",
          "type": "address"
        }
      ],
      "name": "Unpaused",
      "type": "event"
    },
    {
      "inputs": [
        {
          "internalType": "address",
          "name": "userAddress",
          "type": "address"
        }
      ],
      "name": "addAdmin",
      "outputs": [],
      "stateMutability": "nonpayable",
      "type": "function"
    },
    {
      "inputs": [
        {
          "internalType": "address[]",
          "name": "recievers",
          "type": "address[]"
        }
      ],
      "name": "airDrop",
      "outputs": [],
      "stateMutability": "nonpayable",
      "type": "function"
    },
    {
      "inputs": [],
      "name": "allBurn",
      "outputs": [],
      "stateMutability": "nonpayable",
      "type": "function"
    },
    {
      "inputs": [
        {
          "internalType": "address",
          "name": "to",
          "type": "address"
        },
        {
          "internalType": "uint256",
          "name": "tokenId",
          "type": "uint256"
        }
      ],
      "name": "approve",
      "outputs": [],
      "stateMutability": "nonpayable",
      "type": "function"
    },
    {
      "inputs": [
        {
          "internalType": "address",
          "name": "owner",
          "type": "address"
        }
      ],
      "name": "balanceOf",
      "outputs": [
        {
          "internalType": "uint256",
          "name": "",
          "type": "uint256"
        }
      ],
      "stateMutability": "view",
      "type": "function"
    },
    {
      "inputs": [
        {
          "internalType": "uint256",
          "name": "tokenId",
          "type": "uint256"
        }
      ],
      "name": "burn",
      "outputs": [],
      "stateMutability": "nonpayable",
      "type": "function"
    },
    {
      "inputs": [
        {
          "internalType": "address",
          "name": "userAddress",
          "type": "address"
        }
      ],
      "name": "checkAdmin",
      "outputs": [
        {
          "internalType": "bool",
          "name": "",
          "type": "bool"
        }
      ],
      "stateMutability": "view",
      "type": "function"
    },
    {
      "inputs": [
        {
          "internalType": "address",
          "name": "userAddress",
          "type": "address"
        }
      ],
      "name": "delAdmin",
      "outputs": [],
      "stateMutability": "nonpayable",
      "type": "function"
    },
    {
      "inputs": [
        {
          "internalType": "uint256",
          "name": "tokenId",
          "type": "uint256"
        }
      ],
      "name": "getApproved",
      "outputs": [
        {
          "internalType": "address",
          "name": "",
          "type": "address"
        }
      ],
      "stateMutability": "view",
      "type": "function"
    },
    {
      "inputs": [],
      "name": "get_metadataURI",
      "outputs": [
        {
          "internalType": "string",
          "name": "URI",
          "type": "string"
        }
      ],
      "stateMutability": "view",
      "type": "function"
    },
    {
      "inputs": [
        {
          "internalType": "address",
          "name": "owner",
          "type": "address"
        },
        {
          "internalType": "address",
          "name": "operator",
          "type": "address"
        }
      ],
      "name": "isApprovedForAll",
      "outputs": [
        {
          "internalType": "bool",
          "name": "",
          "type": "bool"
        }
      ],
      "stateMutability": "view",
      "type": "function"
    },
    {
      "inputs": [],
      "name": "metadata_URI",
      "outputs": [
        {
          "internalType": "string",
          "name": "",
          "type": "string"
        }
      ],
      "stateMutability": "view",
      "type": "function"
    },
    {
      "inputs": [],
      "name": "name",
      "outputs": [
        {
          "internalType": "string",
          "name": "",
          "type": "string"
        }
      ],
      "stateMutability": "view",
      "type": "function"
    },
    {
      "inputs": [],
      "name": "owner",
      "outputs": [
        {
          "internalType": "address",
          "name": "",
          "type": "address"
        }
      ],
      "stateMutability": "view",
      "type": "function"
    },
    {
      "inputs": [
        {
          "internalType": "uint256",
          "name": "tokenId",
          "type": "uint256"
        }
      ],
      "name": "ownerOf",
      "outputs": [
        {
          "internalType": "address",
          "name": "",
          "type": "address"
        }
      ],
      "stateMutability": "view",
      "type": "function"
    },
    {
      "inputs": [],
      "name": "pause",
      "outputs": [],
      "stateMutability": "nonpayable",
      "type": "function"
    },
    {
      "inputs": [],
      "name": "paused",
      "outputs": [
        {
          "internalType": "bool",
          "name": "",
          "type": "bool"
        }
      ],
      "stateMutability": "view",
      "type": "function"
    },
    {
      "inputs": [],
      "name": "renounceOwnership",
      "outputs": [],
      "stateMutability": "nonpayable",
      "type": "function"
    },
    {
      "inputs": [
        {
          "internalType": "address",
          "name": "to",
          "type": "address"
        }
      ],
      "name": "safeMint",
      "outputs": [],
      "stateMutability": "nonpayable",
      "type": "function"
    },
    {
      "inputs": [
        {
          "internalType": "address",
          "name": "from",
          "type": "address"
        },
        {
          "internalType": "address",
          "name": "to",
          "type": "address"
        },
        {
          "internalType": "uint256",
          "name": "tokenId",
          "type": "uint256"
        }
      ],
      "name": "safeTransferFrom",
      "outputs": [],
      "stateMutability": "nonpayable",
      "type": "function"
    },
    {
      "inputs": [
        {
          "internalType": "address",
          "name": "from",
          "type": "address"
        },
        {
          "internalType": "address",
          "name": "to",
          "type": "address"
        },
        {
          "internalType": "uint256",
          "name": "tokenId",
          "type": "uint256"
        },
        {
          "internalType": "bytes",
          "name": "data",
          "type": "bytes"
        }
      ],
      "name": "safeTransferFrom",
      "outputs": [],
      "stateMutability": "nonpayable",
      "type": "function"
    },
    {
      "inputs": [
        {
          "internalType": "address",
          "name": "",
          "type": "address"
        },
        {
          "internalType": "bool",
          "name": "",
          "type": "bool"
        }
      ],
      "name": "setApprovalForAll",
      "outputs": [],
      "stateMutability": "nonpayable",
      "type": "function"
    },
    {
      "inputs": [
        {
          "internalType": "string",
          "name": "URI",
          "type": "string"
        }
      ],
      "name": "set_metadataURI",
      "outputs": [],
      "stateMutability": "nonpayable",
      "type": "function"
    },
    {
      "inputs": [
        {
          "internalType": "bytes4",
          "name": "interfaceId",
          "type": "bytes4"
        }
      ],
      "name": "supportsInterface",
      "outputs": [
        {
          "internalType": "bool",
          "name": "",
          "type": "bool"
        }
      ],
      "stateMutability": "view",
      "type": "function"
    },
    {
      "inputs": [],
      "name": "symbol",
      "outputs": [
        {
          "internalType": "string",
          "name": "",
          "type": "string"
        }
      ],
      "stateMutability": "view",
      "type": "function"
    },
    {
      "inputs": [
        {
          "internalType": "uint256",
          "name": "tokenId",
          "type": "uint256"
        }
      ],
      "name": "tokenURI",
      "outputs": [
        {
          "internalType": "string",
          "name": "",
          "type": "string"
        }
      ],
      "stateMutability": "view",
      "type": "function"
    },
    {
      "inputs": [
        {
          "internalType": "address",
          "name": "from",
          "type": "address"
        },
        {
          "internalType": "address",
          "name": "to",
          "type": "address"
        },
        {
          "internalType": "uint256",
          "name": "tokenId",
          "type": "uint256"
        }
      ],
      "name": "transferFrom",
      "outputs": [],
      "stateMutability": "nonpayable",
      "type": "function"
    },
    {
      "inputs": [
        {
          "internalType": "address",
          "name": "newOwner",
          "type": "address"
        }
      ],
      "name": "transferOwnership",
      "outputs": [],
      "stateMutability": "nonpayable",
      "type": "function"
    },
    {
      "inputs": [],
      "name": "unpause",
      "outputs": [],
      "stateMutability": "nonpayable",
      "type": "function"
    }
  ],
  "bytecode": "0x60806040523480156200001157600080fd5b506040518060400160405280601781526020017f43727970746f2f57656233204d656574696e67205342540000000000000000008152506040518060400160405280600481526020017f4b4c41420000000000000000000000000000000000000000000000000000000081525081600090805190602001906200009692919062000219565b508060019080519060200190620000af92919062000219565b5050506000600760006101000a81548160ff021916908315150217905550620000ed620000e16200014b60201b60201c565b6200015360201b60201c565b6001600960003373ffffffffffffffffffffffffffffffffffffffff1673ffffffffffffffffffffffffffffffffffffffff16815260200190815260200160002060006101000a81548160ff0219169083151502179055506200032e565b600033905090565b6000600760019054906101000a900473ffffffffffffffffffffffffffffffffffffffff16905081600760016101000a81548173ffffffffffffffffffffffffffffffffffffffff021916908373ffffffffffffffffffffffffffffffffffffffff1602179055508173ffffffffffffffffffffffffffffffffffffffff168173ffffffffffffffffffffffffffffffffffffffff167f8be0079c531659141344cd1fd0a4f28419497f9722a3daafe3b4186f6b6457e060405160405180910390a35050565b8280546200022790620002c9565b90600052602060002090601f0160209004810192826200024b576000855562000297565b82601f106200026657805160ff191683800117855562000297565b8280016001018555821562000297579182015b828111156200029657825182559160200191906001019062000279565b5b509050620002a69190620002aa565b5090565b5b80821115620002c5576000816000905550600101620002ab565b5090565b60006002820490506001821680620002e257607f821691505b60208210811415620002f957620002f8620002ff565b5b50919050565b7f4e487b7100000000000000000000000000000000000000000000000000000000600052602260045260246000fd5b613a71806200033e6000396000f3fe608060405234801561001057600080fd5b50600436106101ce5760003560e01c806370a0823111610104578063a22cb465116100a2578063c87b56dd11610071578063c87b56dd146104b5578063d1a64b41146104e5578063e985e9c514610503578063f2fde38b14610533576101ce565b8063a22cb46514610455578063b88d4fde14610471578063c1f2693b1461048d578063c4447fe2146104ab576101ce565b80638da5cb5b116100de5780638da5cb5b146103cd5780639026dee8146103eb57806395d89b411461041b578063962276d414610439576101ce565b806370a0823114610389578063715018a6146103b95780638456cb59146103c3576101ce565b806340d097c3116101715780635c975abb1161014b5780635c975abb1461030357806362d91855146103215780636352211e1461033d578063704802751461036d576101ce565b806340d097c3146102af57806342842e0e146102cb57806342966c68146102e7576101ce565b8063081812fc116101ad578063081812fc1461023d578063095ea7b31461026d57806323b872dd146102895780633f4ba83a146102a5576101ce565b8062b6849f146101d357806301ffc9a7146101ef57806306fdde031461021f575b600080fd5b6101ed60048036038101906101e89190612a50565b61054f565b005b61020960048036038101906102049190612a91565b610618565b6040516102169190612efb565b60405180910390f35b6102276106fa565b6040516102349190612f16565b60405180910390f35b61025760048036038101906102529190612b24565b61078c565b6040516102649190612e94565b60405180910390f35b61028760048036038101906102829190612a14565b6107d2565b005b6102a3600480360381019061029e919061290e565b6108ea565b005b6102ad61094a565b005b6102c960048036038101906102c491906128a9565b61095c565b005b6102e560048036038101906102e0919061290e565b610a73565b005b61030160048036038101906102fc9190612b24565b610a93565b005b61030b610a9f565b6040516103189190612efb565b60405180910390f35b61033b600480360381019061033691906128a9565b610ab6565b005b61035760048036038101906103529190612b24565b610bfd565b6040516103649190612e94565b60405180910390f35b610387600480360381019061038291906128a9565b610caf565b005b6103a3600480360381019061039e91906128a9565b610df7565b6040516103b09190613158565b60405180910390f35b6103c1610eaf565b005b6103cb610ec3565b005b6103d5610ed5565b6040516103e29190612e94565b60405180910390f35b610405600480360381019061040091906128a9565b610eff565b6040516104129190612efb565b60405180910390f35b610423610f9e565b6040516104309190612f16565b60405180910390f35b610453600480360381019061044e9190612ae3565b611030565b005b61046f600480360381019061046a91906129d8565b6110a7565b005b61048b6004803603810190610486919061295d565b6110ec565b005b61049561114e565b6040516104a29190612f16565b60405180910390f35b6104b36111e0565b005b6104cf60048036038101906104ca9190612b24565b611276565b6040516104dc9190612f16565b60405180910390f35b6104ed611389565b6040516104fa9190612f16565b60405180910390f35b61051d600480360381019061051891906128d2565b611417565b60405161052a9190612efb565b60405180910390f35b61054d600480360381019061054891906128a9565b6114ab565b005b60011515600960003373ffffffffffffffffffffffffffffffffffffffff1673ffffffffffffffffffffffffffffffffffffffff16815260200190815260200160002060009054906101000a900460ff161515146105ac57600080fd5b60005b8151811015610614576106018282815181106105f4577f4e487b7100000000000000000000000000000000000000000000000000000000600052603260045260246000fd5b602002602001015161095c565b808061060c9061343d565b9150506105af565b5050565b60007f80ac58cd000000000000000000000000000000000000000000000000000000007bffffffffffffffffffffffffffffffffffffffffffffffffffffffff1916827bffffffffffffffffffffffffffffffffffffffffffffffffffffffff191614806106e357507f5b5e139f000000000000000000000000000000000000000000000000000000007bffffffffffffffffffffffffffffffffffffffffffffffffffffffff1916827bffffffffffffffffffffffffffffffffffffffffffffffffffffffff1916145b806106f357506106f28261152f565b5b9050919050565b606060008054610709906133da565b80601f0160208091040260200160405190810160405280929190818152602001828054610735906133da565b80156107825780601f1061075757610100808354040283529160200191610782565b820191906000526020600020905b81548152906001019060200180831161076557829003601f168201915b5050505050905090565b600061079782611599565b6004600083815260200190815260200160002060009054906101000a900473ffffffffffffffffffffffffffffffffffffffff169050919050565b60006107dd82610bfd565b90508073ffffffffffffffffffffffffffffffffffffffff168373ffffffffffffffffffffffffffffffffffffffff16141561084e576040517f08c379a0000000000000000000000000000000000000000000000000000000008152600401610845906130f8565b60405180910390fd5b8073ffffffffffffffffffffffffffffffffffffffff1661086d6115e4565b73ffffffffffffffffffffffffffffffffffffffff16148061089c575061089b816108966115e4565b611417565b5b6108db576040517f08c379a00000000000000000000000000000000000000000000000000000000081526004016108d290613078565b60405180910390fd5b6108e583836115ec565b505050565b6108fb6108f56115e4565b826116a5565b61093a576040517f08c379a000000000000000000000000000000000000000000000000000000000815260040161093190613118565b60405180910390fd5b61094583838361173a565b505050565b6109526119a1565b61095a611a1f565b565b60011515600960003373ffffffffffffffffffffffffffffffffffffffff1673ffffffffffffffffffffffffffffffffffffffff16815260200190815260200160002060009054906101000a900460ff161515146109b957600080fd5b60006109c56008611a82565b90506109d16008611a90565b6109db8282611aa6565b610a6f81600a80546109ec906133da565b80601f0160208091040260200160405190810160405280929190818152602001828054610a18906133da565b8015610a655780601f10610a3a57610100808354040283529160200191610a65565b820191906000526020600020905b815481529060010190602001808311610a4857829003601f168201915b5050505050611ac4565b5050565b610a8e838383604051806020016040528060008152506110ec565b505050565b610a9c81611b38565b50565b6000600760009054906101000a900460ff16905090565b60011515600960003373ffffffffffffffffffffffffffffffffffffffff1673ffffffffffffffffffffffffffffffffffffffff16815260200190815260200160002060009054906101000a900460ff16151514610b1357600080fd5b600073ffffffffffffffffffffffffffffffffffffffff168173ffffffffffffffffffffffffffffffffffffffff1614158015610b995750600960008273ffffffffffffffffffffffffffffffffffffffff1673ffffffffffffffffffffffffffffffffffffffff16815260200190815260200160002060009054906101000a900460ff165b610ba257600080fd5b6000600960008373ffffffffffffffffffffffffffffffffffffffff1673ffffffffffffffffffffffffffffffffffffffff16815260200190815260200160002060006101000a81548160ff02191690831515021790555050565b6000806002600084815260200190815260200160002060009054906101000a900473ffffffffffffffffffffffffffffffffffffffff169050600073ffffffffffffffffffffffffffffffffffffffff168173ffffffffffffffffffffffffffffffffffffffff161415610ca6576040517f08c379a0000000000000000000000000000000000000000000000000000000008152600401610c9d906130d8565b60405180910390fd5b80915050919050565b60011515600960003373ffffffffffffffffffffffffffffffffffffffff1673ffffffffffffffffffffffffffffffffffffffff16815260200190815260200160002060009054906101000a900460ff16151514610d0c57600080fd5b600073ffffffffffffffffffffffffffffffffffffffff168173ffffffffffffffffffffffffffffffffffffffff1614158015610d935750600960008273ffffffffffffffffffffffffffffffffffffffff1673ffffffffffffffffffffffffffffffffffffffff16815260200190815260200160002060009054906101000a900460ff16155b610d9c57600080fd5b6001600960008373ffffffffffffffffffffffffffffffffffffffff1673ffffffffffffffffffffffffffffffffffffffff16815260200190815260200160002060006101000a81548160ff02191690831515021790555050565b60008073ffffffffffffffffffffffffffffffffffffffff168273ffffffffffffffffffffffffffffffffffffffff161415610e68576040517f08c379a0000000000000000000000000000000000000000000000000000000008152600401610e5f90613018565b60405180910390fd5b600360008373ffffffffffffffffffffffffffffffffffffffff1673ffffffffffffffffffffffffffffffffffffffff168152602001908152602001600020549050919050565b610eb76119a1565b610ec16000611b8b565b565b610ecb6119a1565b610ed3611c51565b565b6000600760019054906101000a900473ffffffffffffffffffffffffffffffffffffffff16905090565b60008073ffffffffffffffffffffffffffffffffffffffff168273ffffffffffffffffffffffffffffffffffffffff1614158015610f865750600960008373ffffffffffffffffffffffffffffffffffffffff1673ffffffffffffffffffffffffffffffffffffffff16815260200190815260200160002060009054906101000a900460ff165b15610f945760019050610f99565b600090505b919050565b606060018054610fad906133da565b80601f0160208091040260200160405190810160405280929190818152602001828054610fd9906133da565b80156110265780601f10610ffb57610100808354040283529160200191611026565b820191906000526020600020905b81548152906001019060200180831161100957829003601f168201915b5050505050905090565b60011515600960003373ffffffffffffffffffffffffffffffffffffffff1673ffffffffffffffffffffffffffffffffffffffff16815260200190815260200160002060009054906101000a900460ff1615151461108d57600080fd5b80600a90805190602001906110a39291906125f7565b5050565b60006110e8576040517f08c379a00000000000000000000000000000000000000000000000000000000081526004016110df90613138565b60405180910390fd5b5050565b6110fd6110f76115e4565b836116a5565b61113c576040517f08c379a000000000000000000000000000000000000000000000000000000000815260040161113390613118565b60405180910390fd5b61114884848484611cb4565b50505050565b6060600a805461115d906133da565b80601f0160208091040260200160405190810160405280929190818152602001828054611189906133da565b80156111d65780601f106111ab576101008083540402835291602001916111d6565b820191906000526020600020905b8154815290600101906020018083116111b957829003601f168201915b5050505050905090565b60011515600960003373ffffffffffffffffffffffffffffffffffffffff1673ffffffffffffffffffffffffffffffffffffffff16815260200190815260200160002060009054906101000a900460ff1615151461123d57600080fd5b60006112496008611a82565b905060005b818110156112725761125f81610a93565b808061126a9061343d565b91505061124e565b5050565b606061128182611599565b60006006600084815260200190815260200160002080546112a1906133da565b80601f01602080910402602001604051908101604052809291908181526020018280546112cd906133da565b801561131a5780601f106112ef5761010080835404028352916020019161131a565b820191906000526020600020905b8154815290600101906020018083116112fd57829003601f168201915b50505050509050600061132b611d10565b9050600081511415611341578192505050611384565b60008251111561137657808260405160200161135e929190612e70565b60405160208183030381529060405292505050611384565b61137f84611d27565b925050505b919050565b600a8054611396906133da565b80601f01602080910402602001604051908101604052809291908181526020018280546113c2906133da565b801561140f5780601f106113e45761010080835404028352916020019161140f565b820191906000526020600020905b8154815290600101906020018083116113f257829003601f168201915b505050505081565b6000600560008473ffffffffffffffffffffffffffffffffffffffff1673ffffffffffffffffffffffffffffffffffffffff16815260200190815260200160002060008373ffffffffffffffffffffffffffffffffffffffff1673ffffffffffffffffffffffffffffffffffffffff16815260200190815260200160002060009054906101000a900460ff16905092915050565b6114b36119a1565b600073ffffffffffffffffffffffffffffffffffffffff168173ffffffffffffffffffffffffffffffffffffffff161415611523576040517f08c379a000000000000000000000000000000000000000000000000000000000815260040161151a90612f78565b60405180910390fd5b61152c81611b8b565b50565b60007f01ffc9a7000000000000000000000000000000000000000000000000000000007bffffffffffffffffffffffffffffffffffffffffffffffffffffffff1916827bffffffffffffffffffffffffffffffffffffffffffffffffffffffff1916149050919050565b6115a281611d8f565b6115e1576040517f08c379a00000000000000000000000000000000000000000000000000000000081526004016115d8906130d8565b60405180910390fd5b50565b600033905090565b816004600083815260200190815260200160002060006101000a81548173ffffffffffffffffffffffffffffffffffffffff021916908373ffffffffffffffffffffffffffffffffffffffff160217905550808273ffffffffffffffffffffffffffffffffffffffff1661165f83610bfd565b73ffffffffffffffffffffffffffffffffffffffff167f8c5be1e5ebec7d5bd14f71427d1e84f3dd0314c0f7b2291e5b200ac8c7c3b92560405160405180910390a45050565b6000806116b183610bfd565b90508073ffffffffffffffffffffffffffffffffffffffff168473ffffffffffffffffffffffffffffffffffffffff1614806116f357506116f28185611417565b5b8061173157508373ffffffffffffffffffffffffffffffffffffffff166117198461078c565b73ffffffffffffffffffffffffffffffffffffffff16145b91505092915050565b8273ffffffffffffffffffffffffffffffffffffffff1661175a82610bfd565b73ffffffffffffffffffffffffffffffffffffffff16146117b0576040517f08c379a00000000000000000000000000000000000000000000000000000000081526004016117a790612f98565b60405180910390fd5b600073ffffffffffffffffffffffffffffffffffffffff168273ffffffffffffffffffffffffffffffffffffffff161415611820576040517f08c379a000000000000000000000000000000000000000000000000000000000815260040161181790612fd8565b60405180910390fd5b61182b838383611dfb565b6118366000826115ec565b6001600360008573ffffffffffffffffffffffffffffffffffffffff1673ffffffffffffffffffffffffffffffffffffffff168152602001908152602001600020600082825461188691906132f0565b925050819055506001600360008473ffffffffffffffffffffffffffffffffffffffff1673ffffffffffffffffffffffffffffffffffffffff16815260200190815260200160002060008282546118dd9190613269565b92505081905550816002600083815260200190815260200160002060006101000a81548173ffffffffffffffffffffffffffffffffffffffff021916908373ffffffffffffffffffffffffffffffffffffffff160217905550808273ffffffffffffffffffffffffffffffffffffffff168473ffffffffffffffffffffffffffffffffffffffff167fddf252ad1be2c89b69c2b068fc378daa952ba7f163c4a11628f55a4df523b3ef60405160405180910390a461199c838383611ea6565b505050565b6119a96115e4565b73ffffffffffffffffffffffffffffffffffffffff166119c7610ed5565b73ffffffffffffffffffffffffffffffffffffffff1614611a1d576040517f08c379a0000000000000000000000000000000000000000000000000000000008152600401611a14906130b8565b60405180910390fd5b565b611a27611eab565b6000600760006101000a81548160ff0219169083151502179055507f5db9ee0a495bf2e6ff9c91a7834c1ba4fdd244a5e8aa4e537bd38aeae4b073aa611a6b6115e4565b604051611a789190612e94565b60405180910390a1565b600081600001549050919050565b6001816000016000828254019250508190555050565b611ac0828260405180602001604052806000815250611ef4565b5050565b611acd82611d8f565b611b0c576040517f08c379a0000000000000000000000000000000000000000000000000000000008152600401611b0390613038565b60405180910390fd5b80600660008481526020019081526020016000209080519060200190611b339291906125f7565b505050565b611b4181611f4f565b6000600660008381526020019081526020016000208054611b61906133da565b905014611b8857600660008281526020019081526020016000206000611b87919061267d565b5b50565b6000600760019054906101000a900473ffffffffffffffffffffffffffffffffffffffff16905081600760016101000a81548173ffffffffffffffffffffffffffffffffffffffff021916908373ffffffffffffffffffffffffffffffffffffffff1602179055508173ffffffffffffffffffffffffffffffffffffffff168173ffffffffffffffffffffffffffffffffffffffff167f8be0079c531659141344cd1fd0a4f28419497f9722a3daafe3b4186f6b6457e060405160405180910390a35050565b611c5961206c565b6001600760006101000a81548160ff0219169083151502179055507f62e78cea01bee320cd4e420270b5ea74000d11b0c9f74754ebdbfc544b05a258611c9d6115e4565b604051611caa9190612e94565b60405180910390a1565b611cbf84848461173a565b611ccb848484846120b6565b611d0a576040517f08c379a0000000000000000000000000000000000000000000000000000000008152600401611d0190612f58565b60405180910390fd5b50505050565b606060405180602001604052806000815250905090565b6060611d3282611599565b6000611d3c611d10565b90506000815111611d5c5760405180602001604052806000815250611d87565b80611d668461224d565b604051602001611d77929190612e70565b6040516020818303038152906040525b915050919050565b60008073ffffffffffffffffffffffffffffffffffffffff166002600084815260200190815260200160002060009054906101000a900473ffffffffffffffffffffffffffffffffffffffff1673ffffffffffffffffffffffffffffffffffffffff1614159050919050565b600073ffffffffffffffffffffffffffffffffffffffff168373ffffffffffffffffffffffffffffffffffffffff161480611e625750600073ffffffffffffffffffffffffffffffffffffffff168273ffffffffffffffffffffffffffffffffffffffff16145b611ea1576040517f08c379a0000000000000000000000000000000000000000000000000000000008152600401611e9890613058565b60405180910390fd5b505050565b505050565b611eb3610a9f565b611ef2576040517f08c379a0000000000000000000000000000000000000000000000000000000008152600401611ee990612f38565b60405180910390fd5b565b611efe83836123fa565b611f0b60008484846120b6565b611f4a576040517f08c379a0000000000000000000000000000000000000000000000000000000008152600401611f4190612f58565b60405180910390fd5b505050565b6000611f5a82610bfd565b9050611f6881600084611dfb565b611f736000836115ec565b6001600360008373ffffffffffffffffffffffffffffffffffffffff1673ffffffffffffffffffffffffffffffffffffffff1681526020019081526020016000206000828254611fc391906132f0565b925050819055506002600083815260200190815260200160002060006101000a81549073ffffffffffffffffffffffffffffffffffffffff021916905581600073ffffffffffffffffffffffffffffffffffffffff168273ffffffffffffffffffffffffffffffffffffffff167fddf252ad1be2c89b69c2b068fc378daa952ba7f163c4a11628f55a4df523b3ef60405160405180910390a461206881600084611ea6565b5050565b612074610a9f565b156120b4576040517f08c379a00000000000000000000000000000000000000000000000000000000081526004016120ab90612ff8565b60405180910390fd5b565b60006120d78473ffffffffffffffffffffffffffffffffffffffff166125d4565b15612240578373ffffffffffffffffffffffffffffffffffffffff1663150b7a026121006115e4565b8786866040518563ffffffff1660e01b81526004016121229493929190612eaf565b602060405180830381600087803b15801561213c57600080fd5b505af192505050801561216d57506040513d601f19601f8201168201806040525081019061216a9190612aba565b60015b6121f0573d806000811461219d576040519150601f19603f3d011682016040523d82523d6000602084013e6121a2565b606091505b506000815114156121e8576040517f08c379a00000000000000000000000000000000000000000000000000000000081526004016121df90612f58565b60405180910390fd5b805181602001fd5b63150b7a0260e01b7bffffffffffffffffffffffffffffffffffffffffffffffffffffffff1916817bffffffffffffffffffffffffffffffffffffffffffffffffffffffff191614915050612245565b600190505b949350505050565b60606000821415612295576040518060400160405280600181526020017f300000000000000000000000000000000000000000000000000000000000000081525090506123f5565b600082905060005b600082146122c75780806122b09061343d565b915050600a826122c091906132bf565b915061229d565b60008167ffffffffffffffff811115612309577f4e487b7100000000000000000000000000000000000000000000000000000000600052604160045260246000fd5b6040519080825280601f01601f19166020018201604052801561233b5781602001600182028036833780820191505090505b5090505b600085146123ee5760018261235491906132f0565b9150600a856123639190613486565b603061236f9190613269565b60f81b8183815181106123ab577f4e487b7100000000000000000000000000000000000000000000000000000000600052603260045260246000fd5b60200101907effffffffffffffffffffffffffffffffffffffffffffffffffffffffffffff1916908160001a905350600a856123e791906132bf565b945061233f565b8093505050505b919050565b600073ffffffffffffffffffffffffffffffffffffffff168273ffffffffffffffffffffffffffffffffffffffff16141561246a576040517f08c379a000000000000000000000000000000000000000000000000000000000815260040161246190613098565b60405180910390fd5b61247381611d8f565b156124b3576040517f08c379a00000000000000000000000000000000000000000000000000000000081526004016124aa90612fb8565b60405180910390fd5b6124bf60008383611dfb565b6001600360008473ffffffffffffffffffffffffffffffffffffffff1673ffffffffffffffffffffffffffffffffffffffff168152602001908152602001600020600082825461250f9190613269565b92505081905550816002600083815260200190815260200160002060006101000a81548173ffffffffffffffffffffffffffffffffffffffff021916908373ffffffffffffffffffffffffffffffffffffffff160217905550808273ffffffffffffffffffffffffffffffffffffffff16600073ffffffffffffffffffffffffffffffffffffffff167fddf252ad1be2c89b69c2b068fc378daa952ba7f163c4a11628f55a4df523b3ef60405160405180910390a46125d060008383611ea6565b5050565b6000808273ffffffffffffffffffffffffffffffffffffffff163b119050919050565b828054612603906133da565b90600052602060002090601f016020900481019282612625576000855561266c565b82601f1061263e57805160ff191683800117855561266c565b8280016001018555821561266c579182015b8281111561266b578251825591602001919060010190612650565b5b50905061267991906126bd565b5090565b508054612689906133da565b6000825580601f1061269b57506126ba565b601f0160209004906000526020600020908101906126b991906126bd565b5b50565b5b808211156126d65760008160009055506001016126be565b5090565b60006126ed6126e884613198565b613173565b9050808382526020820190508285602086028201111561270c57600080fd5b60005b8581101561273c578161272288826127c2565b84526020840193506020830192505060018101905061270f565b5050509392505050565b6000612759612754846131c4565b613173565b90508281526020810184848401111561277157600080fd5b61277c848285613398565b509392505050565b6000612797612792846131f5565b613173565b9050828152602081018484840111156127af57600080fd5b6127ba848285613398565b509392505050565b6000813590506127d1816139df565b92915050565b600082601f8301126127e857600080fd5b81356127f88482602086016126da565b91505092915050565b600081359050612810816139f6565b92915050565b60008135905061282581613a0d565b92915050565b60008151905061283a81613a0d565b92915050565b600082601f83011261285157600080fd5b8135612861848260208601612746565b91505092915050565b600082601f83011261287b57600080fd5b813561288b848260208601612784565b91505092915050565b6000813590506128a381613a24565b92915050565b6000602082840312156128bb57600080fd5b60006128c9848285016127c2565b91505092915050565b600080604083850312156128e557600080fd5b60006128f3858286016127c2565b9250506020612904858286016127c2565b9150509250929050565b60008060006060848603121561292357600080fd5b6000612931868287016127c2565b9350506020612942868287016127c2565b925050604061295386828701612894565b9150509250925092565b6000806000806080858703121561297357600080fd5b6000612981878288016127c2565b9450506020612992878288016127c2565b93505060406129a387828801612894565b925050606085013567ffffffffffffffff8111156129c057600080fd5b6129cc87828801612840565b91505092959194509250565b600080604083850312156129eb57600080fd5b60006129f9858286016127c2565b9250506020612a0a85828601612801565b9150509250929050565b60008060408385031215612a2757600080fd5b6000612a35858286016127c2565b9250506020612a4685828601612894565b9150509250929050565b600060208284031215612a6257600080fd5b600082013567ffffffffffffffff811115612a7c57600080fd5b612a88848285016127d7565b91505092915050565b600060208284031215612aa357600080fd5b6000612ab184828501612816565b91505092915050565b600060208284031215612acc57600080fd5b6000612ada8482850161282b565b91505092915050565b600060208284031215612af557600080fd5b600082013567ffffffffffffffff811115612b0f57600080fd5b612b1b8482850161286a565b91505092915050565b600060208284031215612b3657600080fd5b6000612b4484828501612894565b91505092915050565b612b5681613324565b82525050565b612b6581613336565b82525050565b6000612b7682613226565b612b80818561323c565b9350612b908185602086016133a7565b612b9981613573565b840191505092915050565b6000612baf82613231565b612bb9818561324d565b9350612bc98185602086016133a7565b612bd281613573565b840191505092915050565b6000612be882613231565b612bf2818561325e565b9350612c028185602086016133a7565b80840191505092915050565b6000612c1b60148361324d565b9150612c2682613584565b602082019050919050565b6000612c3e60328361324d565b9150612c49826135ad565b604082019050919050565b6000612c6160268361324d565b9150612c6c826135fc565b604082019050919050565b6000612c8460258361324d565b9150612c8f8261364b565b604082019050919050565b6000612ca7601c8361324d565b9150612cb28261369a565b602082019050919050565b6000612cca60248361324d565b9150612cd5826136c3565b604082019050919050565b6000612ced60108361324d565b9150612cf882613712565b602082019050919050565b6000612d1060298361324d565b9150612d1b8261373b565b604082019050919050565b6000612d33602e8361324d565b9150612d3e8261378a565b604082019050919050565b6000612d56602c8361324d565b9150612d61826137d9565b604082019050919050565b6000612d79603e8361324d565b9150612d8482613828565b604082019050919050565b6000612d9c60208361324d565b9150612da782613877565b602082019050919050565b6000612dbf60208361324d565b9150612dca826138a0565b602082019050919050565b6000612de260188361324d565b9150612ded826138c9565b602082019050919050565b6000612e0560218361324d565b9150612e10826138f2565b604082019050919050565b6000612e28602e8361324d565b9150612e3382613941565b604082019050919050565b6000612e4b602b8361324d565b9150612e5682613990565b604082019050919050565b612e6a8161338e565b82525050565b6000612e7c8285612bdd565b9150612e888284612bdd565b91508190509392505050565b6000602082019050612ea96000830184612b4d565b92915050565b6000608082019050612ec46000830187612b4d565b612ed16020830186612b4d565b612ede6040830185612e61565b8181036060830152612ef08184612b6b565b905095945050505050565b6000602082019050612f106000830184612b5c565b92915050565b60006020820190508181036000830152612f308184612ba4565b905092915050565b60006020820190508181036000830152612f5181612c0e565b9050919050565b60006020820190508181036000830152612f7181612c31565b9050919050565b60006020820190508181036000830152612f9181612c54565b9050919050565b60006020820190508181036000830152612fb181612c77565b9050919050565b60006020820190508181036000830152612fd181612c9a565b9050919050565b60006020820190508181036000830152612ff181612cbd565b9050919050565b6000602082019050818103600083015261301181612ce0565b9050919050565b6000602082019050818103600083015261303181612d03565b9050919050565b6000602082019050818103600083015261305181612d26565b9050919050565b6000602082019050818103600083015261307181612d49565b9050919050565b6000602082019050818103600083015261309181612d6c565b9050919050565b600060208201905081810360008301526130b181612d8f565b9050919050565b600060208201905081810360008301526130d181612db2565b9050919050565b600060208201905081810360008301526130f181612dd5565b9050919050565b6000602082019050818103600083015261311181612df8565b9050919050565b6000602082019050818103600083015261313181612e1b565b9050919050565b6000602082019050818103600083015261315181612e3e565b9050919050565b600060208201905061316d6000830184612e61565b92915050565b600061317d61318e565b9050613189828261340c565b919050565b6000604051905090565b600067ffffffffffffffff8211156131b3576131b2613544565b5b602082029050602081019050919050565b600067ffffffffffffffff8211156131df576131de613544565b5b6131e882613573565b9050602081019050919050565b600067ffffffffffffffff8211156132105761320f613544565b5b61321982613573565b9050602081019050919050565b600081519050919050565b600081519050919050565b600082825260208201905092915050565b600082825260208201905092915050565b600081905092915050565b60006132748261338e565b915061327f8361338e565b9250827fffffffffffffffffffffffffffffffffffffffffffffffffffffffffffffffff038211156132b4576132b36134b7565b5b828201905092915050565b60006132ca8261338e565b91506132d58361338e565b9250826132e5576132e46134e6565b5b828204905092915050565b60006132fb8261338e565b91506133068361338e565b925082821015613319576133186134b7565b5b828203905092915050565b600061332f8261336e565b9050919050565b60008115159050919050565b60007fffffffff0000000000000000000000000000000000000000000000000000000082169050919050565b600073ffffffffffffffffffffffffffffffffffffffff82169050919050565b6000819050919050565b82818337600083830152505050565b60005b838110156133c55780820151818401526020810190506133aa565b838111156133d4576000848401525b50505050565b600060028204905060018216806133f257607f821691505b6020821081141561340657613405613515565b5b50919050565b61341582613573565b810181811067ffffffffffffffff8211171561343457613433613544565b5b80604052505050565b60006134488261338e565b91507fffffffffffffffffffffffffffffffffffffffffffffffffffffffffffffffff82141561347b5761347a6134b7565b5b600182019050919050565b60006134918261338e565b915061349c8361338e565b9250826134ac576134ab6134e6565b5b828206905092915050565b7f4e487b7100000000000000000000000000000000000000000000000000000000600052601160045260246000fd5b7f4e487b7100000000000000000000000000000000000000000000000000000000600052601260045260246000fd5b7f4e487b7100000000000000000000000000000000000000000000000000000000600052602260045260246000fd5b7f4e487b7100000000000000000000000000000000000000000000000000000000600052604160045260246000fd5b6000601f19601f8301169050919050565b7f5061757361626c653a206e6f7420706175736564000000000000000000000000600082015250565b7f4552433732313a207472616e7366657220746f206e6f6e20455243373231526560008201527f63656976657220696d706c656d656e7465720000000000000000000000000000602082015250565b7f4f776e61626c653a206e6577206f776e657220697320746865207a65726f206160008201527f6464726573730000000000000000000000000000000000000000000000000000602082015250565b7f4552433732313a207472616e736665722066726f6d20696e636f72726563742060008201527f6f776e6572000000000000000000000000000000000000000000000000000000602082015250565b7f4552433732313a20746f6b656e20616c7265616479206d696e74656400000000600082015250565b7f4552433732313a207472616e7366657220746f20746865207a65726f2061646460008201527f7265737300000000000000000000000000000000000000000000000000000000602082015250565b7f5061757361626c653a2070617573656400000000000000000000000000000000600082015250565b7f4552433732313a2061646472657373207a65726f206973206e6f74206120766160008201527f6c6964206f776e65720000000000000000000000000000000000000000000000602082015250565b7f45524337323155524953746f726167653a2055524920736574206f66206e6f6e60008201527f6578697374656e7420746f6b656e000000000000000000000000000000000000602082015250565b7f5468697320746f6b656e206973205342542c20736f20746869732063616e206e60008201527f6f74207472616e736665722e0000000000000000000000000000000000000000602082015250565b7f4552433732313a20617070726f76652063616c6c6572206973206e6f7420746f60008201527f6b656e206f776e6572206e6f7220617070726f76656420666f7220616c6c0000602082015250565b7f4552433732313a206d696e7420746f20746865207a65726f2061646472657373600082015250565b7f4f776e61626c653a2063616c6c6572206973206e6f7420746865206f776e6572600082015250565b7f4552433732313a20696e76616c696420746f6b656e2049440000000000000000600082015250565b7f4552433732313a20617070726f76616c20746f2063757272656e74206f776e6560008201527f7200000000000000000000000000000000000000000000000000000000000000602082015250565b7f4552433732313a2063616c6c6572206973206e6f7420746f6b656e206f776e6560008201527f72206e6f7220617070726f766564000000000000000000000000000000000000602082015250565b7f5468697320746f6b656e206973205342542c20736f20746869732063616e206e60008201527f6f7420617070726f76652e000000000000000000000000000000000000000000602082015250565b6139e881613324565b81146139f357600080fd5b50565b6139ff81613336565b8114613a0a57600080fd5b50565b613a1681613342565b8114613a2157600080fd5b50565b613a2d8161338e565b8114613a3857600080fd5b5056fea26469706673582212202f75a415a665532477d3de750aaebf986062da3c5c8b2cd01f008e793f704be764736f6c63430008040033",
  "linkReferences": {},
  "deployedLinkReferences": {}
}