{
    "_format": "hh-sol-artifact-1",
    "contractName": "MeetingSBT",
    "sourceName": "contracts/MeetingSBT.sol",
    "abi": [
        {
            "inputs": [],
            "stateMutability": "nonpayable",
            "type": "constructor"
        },
        {
            "anonymous": false,
            "inputs": [
                {
                    "indexed": true,
                    "internalType": "address",
                    "name": "owner",
                    "type": "address"
                },
                {
                    "indexed": true,
                    "internalType": "address",
                    "name": "approved",
                    "type": "address"
                },
                {
                    "indexed": true,
                    "internalType": "uint256",
                    "name": "tokenId",
                    "type": "uint256"
                }
            ],
            "name": "Approval",
            "type": "event"
        },
        {
            "anonymous": false,
            "inputs": [
                {
                    "indexed": true,
                    "internalType": "address",
                    "name": "owner",
                    "type": "address"
                },
                {
                    "indexed": true,
                    "internalType": "address",
                    "name": "operator",
                    "type": "address"
                },
                {
                    "indexed": false,
                    "internalType": "bool",
                    "name": "approved",
                    "type": "bool"
                }
            ],
            "name": "ApprovalForAll",
            "type": "event"
        },
        {
            "anonymous": false,
            "inputs": [
                {
                    "indexed": true,
                    "internalType": "address",
                    "name": "previousOwner",
                    "type": "address"
                },
                {
                    "indexed": true,
                    "internalType": "address",
                    "name": "newOwner",
                    "type": "address"
                }
            ],
            "name": "OwnershipTransferred",
            "type": "event"
        },
        {
            "anonymous": false,
            "inputs": [
                {
                    "indexed": false,
                    "internalType": "address",
                    "name": "account",
                    "type": "address"
                }
            ],
            "name": "Paused",
            "type": "event"
        },
        {
            "anonymous": false,
            "inputs": [
                {
                    "indexed": true,
                    "internalType": "address",
                    "name": "from",
                    "type": "address"
                },
                {
                    "indexed": true,
                    "internalType": "address",
                    "name": "to",
                    "type": "address"
                },
                {
                    "indexed": true,
                    "internalType": "uint256",
                    "name": "tokenId",
                    "type": "uint256"
                }
            ],
            "name": "Transfer",
            "type": "event"
        },
        {
            "anonymous": false,
            "inputs": [
                {
                    "indexed": false,
                    "internalType": "address",
                    "name": "account",
                    "type": "address"
                }
            ],
            "name": "Unpaused",
            "type": "event"
        },
        {
            "inputs": [
                {
                    "internalType": "address",
                    "name": "userAddress",
                    "type": "address"
                }
            ],
            "name": "addAdmin",
            "outputs": [],
            "stateMutability": "nonpayable",
            "type": "function"
        },
        {
            "inputs": [
                {
                    "internalType": "address[]",
                    "name": "recievers",
                    "type": "address[]"
                }
            ],
            "name": "airDrop",
            "outputs": [],
            "stateMutability": "nonpayable",
            "type": "function"
        },
        {
            "inputs": [
                {
                    "internalType": "address",
                    "name": "to",
                    "type": "address"
                },
                {
                    "internalType": "uint256",
                    "name": "tokenId",
                    "type": "uint256"
                }
            ],
            "name": "approve",
            "outputs": [],
            "stateMutability": "nonpayable",
            "type": "function"
        },
        {
            "inputs": [
                {
                    "internalType": "address",
                    "name": "owner",
                    "type": "address"
                }
            ],
            "name": "balanceOf",
            "outputs": [
                {
                    "internalType": "uint256",
                    "name": "",
                    "type": "uint256"
                }
            ],
            "stateMutability": "view",
            "type": "function"
        },
        {
            "inputs": [
                {
                    "internalType": "address",
                    "name": "userAddress",
                    "type": "address"
                }
            ],
            "name": "delAdmin",
            "outputs": [],
            "stateMutability": "nonpayable",
            "type": "function"
        },
        {
            "inputs": [
                {
                    "internalType": "uint256",
                    "name": "tokenId",
                    "type": "uint256"
                }
            ],
            "name": "getApproved",
            "outputs": [
                {
                    "internalType": "address",
                    "name": "",
                    "type": "address"
                }
            ],
            "stateMutability": "view",
            "type": "function"
        },
        {
            "inputs": [
                {
                    "internalType": "address",
                    "name": "owner",
                    "type": "address"
                },
                {
                    "internalType": "address",
                    "name": "operator",
                    "type": "address"
                }
            ],
            "name": "isApprovedForAll",
            "outputs": [
                {
                    "internalType": "bool",
                    "name": "",
                    "type": "bool"
                }
            ],
            "stateMutability": "view",
            "type": "function"
        },
        {
            "inputs": [],
            "name": "name",
            "outputs": [
                {
                    "internalType": "string",
                    "name": "",
                    "type": "string"
                }
            ],
            "stateMutability": "view",
            "type": "function"
        },
        {
            "inputs": [],
            "name": "owner",
            "outputs": [
                {
                    "internalType": "address",
                    "name": "",
                    "type": "address"
                }
            ],
            "stateMutability": "view",
            "type": "function"
        },
        {
            "inputs": [
                {
                    "internalType": "uint256",
                    "name": "tokenId",
                    "type": "uint256"
                }
            ],
            "name": "ownerOf",
            "outputs": [
                {
                    "internalType": "address",
                    "name": "",
                    "type": "address"
                }
            ],
            "stateMutability": "view",
            "type": "function"
        },
        {
            "inputs": [],
            "name": "pause",
            "outputs": [],
            "stateMutability": "nonpayable",
            "type": "function"
        },
        {
            "inputs": [],
            "name": "paused",
            "outputs": [
                {
                    "internalType": "bool",
                    "name": "",
                    "type": "bool"
                }
            ],
            "stateMutability": "view",
            "type": "function"
        },
        {
            "inputs": [],
            "name": "renounceOwnership",
            "outputs": [],
            "stateMutability": "nonpayable",
            "type": "function"
        },
        {
            "inputs": [
                {
                    "internalType": "address",
                    "name": "to",
                    "type": "address"
                }
            ],
            "name": "safeMint",
            "outputs": [],
            "stateMutability": "nonpayable",
            "type": "function"
        },
        {
            "inputs": [
                {
                    "internalType": "address",
                    "name": "from",
                    "type": "address"
                },
                {
                    "internalType": "address",
                    "name": "to",
                    "type": "address"
                },
                {
                    "internalType": "uint256",
                    "name": "tokenId",
                    "type": "uint256"
                }
            ],
            "name": "safeTransferFrom",
            "outputs": [],
            "stateMutability": "nonpayable",
            "type": "function"
        },
        {
            "inputs": [
                {
                    "internalType": "address",
                    "name": "from",
                    "type": "address"
                },
                {
                    "internalType": "address",
                    "name": "to",
                    "type": "address"
                },
                {
                    "internalType": "uint256",
                    "name": "tokenId",
                    "type": "uint256"
                },
                {
                    "internalType": "bytes",
                    "name": "data",
                    "type": "bytes"
                }
            ],
            "name": "safeTransferFrom",
            "outputs": [],
            "stateMutability": "nonpayable",
            "type": "function"
        },
        {
            "inputs": [
                {
                    "internalType": "address",
                    "name": "operator",
                    "type": "address"
                },
                {
                    "internalType": "bool",
                    "name": "approved",
                    "type": "bool"
                }
            ],
            "name": "setApprovalForAll",
            "outputs": [],
            "stateMutability": "nonpayable",
            "type": "function"
        },
        {
            "inputs": [
                {
                    "internalType": "bytes4",
                    "name": "interfaceId",
                    "type": "bytes4"
                }
            ],
            "name": "supportsInterface",
            "outputs": [
                {
                    "internalType": "bool",
                    "name": "",
                    "type": "bool"
                }
            ],
            "stateMutability": "view",
            "type": "function"
        },
        {
            "inputs": [],
            "name": "symbol",
            "outputs": [
                {
                    "internalType": "string",
                    "name": "",
                    "type": "string"
                }
            ],
            "stateMutability": "view",
            "type": "function"
        },
        {
            "inputs": [
                {
                    "internalType": "uint256",
                    "name": "tokenId",
                    "type": "uint256"
                }
            ],
            "name": "tokenURI",
            "outputs": [
                {
                    "internalType": "string",
                    "name": "",
                    "type": "string"
                }
            ],
            "stateMutability": "view",
            "type": "function"
        },
        {
            "inputs": [
                {
                    "internalType": "address",
                    "name": "from",
                    "type": "address"
                },
                {
                    "internalType": "address",
                    "name": "to",
                    "type": "address"
                },
                {
                    "internalType": "uint256",
                    "name": "tokenId",
                    "type": "uint256"
                }
            ],
            "name": "transferFrom",
            "outputs": [],
            "stateMutability": "nonpayable",
            "type": "function"
        },
        {
            "inputs": [
                {
                    "internalType": "address",
                    "name": "newOwner",
                    "type": "address"
                }
            ],
            "name": "transferOwnership",
            "outputs": [],
            "stateMutability": "nonpayable",
            "type": "function"
        },
        {
            "inputs": [],
            "name": "unpause",
            "outputs": [],
            "stateMutability": "nonpayable",
            "type": "function"
        }
    ],
    "bytecode": "0x60806040523480156200001157600080fd5b506040518060400160405280600a81526020017f4d656574696e67534254000000000000000000000000000000000000000000008152506040518060400160405280600481526020017f4b4c41420000000000000000000000000000000000000000000000000000000081525081600090805190602001906200009692919062000219565b508060019080519060200190620000af92919062000219565b5050506000600760006101000a81548160ff021916908315150217905550620000ed620000e16200014b60201b60201c565b6200015360201b60201c565b6001600960003373ffffffffffffffffffffffffffffffffffffffff1673ffffffffffffffffffffffffffffffffffffffff16815260200190815260200160002060006101000a81548160ff0219169083151502179055506200032e565b600033905090565b6000600760019054906101000a900473ffffffffffffffffffffffffffffffffffffffff16905081600760016101000a81548173ffffffffffffffffffffffffffffffffffffffff021916908373ffffffffffffffffffffffffffffffffffffffff1602179055508173ffffffffffffffffffffffffffffffffffffffff168173ffffffffffffffffffffffffffffffffffffffff167f8be0079c531659141344cd1fd0a4f28419497f9722a3daafe3b4186f6b6457e060405160405180910390a35050565b8280546200022790620002c9565b90600052602060002090601f0160209004810192826200024b576000855562000297565b82601f106200026657805160ff191683800117855562000297565b8280016001018555821562000297579182015b828111156200029657825182559160200191906001019062000279565b5b509050620002a69190620002aa565b5090565b5b80821115620002c5576000816000905550600101620002ab565b5090565b60006002820490506001821680620002e257607f821691505b60208210811415620002f957620002f8620002ff565b5b50919050565b7f4e487b7100000000000000000000000000000000000000000000000000000000600052602260045260246000fd5b6133c5806200033e6000396000f3fe608060405234801561001057600080fd5b506004361061014c5760003560e01c80636352211e116100c357806395d89b411161007c57806395d89b411461034d578063a22cb4651461036b578063b88d4fde14610387578063c87b56dd146103a3578063e985e9c5146103d3578063f2fde38b146104035761014c565b80636352211e1461029f57806370480275146102cf57806370a08231146102eb578063715018a61461031b5780638456cb59146103255780638da5cb5b1461032f5761014c565b806323b872dd1161011557806323b872dd146102075780633f4ba83a1461022357806340d097c31461022d57806342842e0e146102495780635c975abb1461026557806362d91855146102835761014c565b8062b6849f1461015157806301ffc9a71461016d57806306fdde031461019d578063081812fc146101bb578063095ea7b3146101eb575b600080fd5b61016b6004803603810190610166919061246e565b61041f565b005b610187600480360381019061018291906124af565b6104e8565b60405161019491906128b5565b60405180910390f35b6101a56105ca565b6040516101b291906128d0565b60405180910390f35b6101d560048036038101906101d09190612501565b61065c565b6040516101e2919061284e565b60405180910390f35b61020560048036038101906102009190612432565b6106a2565b005b610221600480360381019061021c919061232c565b6107ba565b005b61022b61081a565b005b610247600480360381019061024291906122c7565b61082c565b005b610263600480360381019061025e919061232c565b6108d1565b005b61026d6108f1565b60405161027a91906128b5565b60405180910390f35b61029d600480360381019061029891906122c7565b610908565b005b6102b960048036038101906102b49190612501565b610a4f565b6040516102c6919061284e565b60405180910390f35b6102e960048036038101906102e491906122c7565b610b01565b005b610305600480360381019061030091906122c7565b610c49565b6040516103129190612af2565b60405180910390f35b610323610d01565b005b61032d610d15565b005b610337610d27565b604051610344919061284e565b60405180910390f35b610355610d51565b60405161036291906128d0565b60405180910390f35b610385600480360381019061038091906123f6565b610de3565b005b6103a1600480360381019061039c919061237b565b610df9565b005b6103bd60048036038101906103b89190612501565b610e5b565b6040516103ca91906128d0565b60405180910390f35b6103ed60048036038101906103e891906122f0565b610f6e565b6040516103fa91906128b5565b60405180910390f35b61041d600480360381019061041891906122c7565b611002565b005b60011515600960003373ffffffffffffffffffffffffffffffffffffffff1673ffffffffffffffffffffffffffffffffffffffff16815260200190815260200160002060009054906101000a900460ff1615151461047c57600080fd5b60005b81518110156104e4576104d18282815181106104c4577f4e487b7100000000000000000000000000000000000000000000000000000000600052603260045260246000fd5b602002602001015161082c565b80806104dc90612da6565b91505061047f565b5050565b60007f80ac58cd000000000000000000000000000000000000000000000000000000007bffffffffffffffffffffffffffffffffffffffffffffffffffffffff1916827bffffffffffffffffffffffffffffffffffffffffffffffffffffffff191614806105b357507f5b5e139f000000000000000000000000000000000000000000000000000000007bffffffffffffffffffffffffffffffffffffffffffffffffffffffff1916827bffffffffffffffffffffffffffffffffffffffffffffffffffffffff1916145b806105c357506105c282611086565b5b9050919050565b6060600080546105d990612d43565b80601f016020809104026020016040519081016040528092919081815260200182805461060590612d43565b80156106525780601f1061062757610100808354040283529160200191610652565b820191906000526020600020905b81548152906001019060200180831161063557829003601f168201915b5050505050905090565b6000610667826110f0565b6004600083815260200190815260200160002060009054906101000a900473ffffffffffffffffffffffffffffffffffffffff169050919050565b60006106ad82610a4f565b90508073ffffffffffffffffffffffffffffffffffffffff168373ffffffffffffffffffffffffffffffffffffffff16141561071e576040517f08c379a000000000000000000000000000000000000000000000000000000000815260040161071590612ab2565b60405180910390fd5b8073ffffffffffffffffffffffffffffffffffffffff1661073d61113b565b73ffffffffffffffffffffffffffffffffffffffff16148061076c575061076b8161076661113b565b610f6e565b5b6107ab576040517f08c379a00000000000000000000000000000000000000000000000000000000081526004016107a290612a32565b60405180910390fd5b6107b58383611143565b505050565b6107cb6107c561113b565b826111fc565b61080a576040517f08c379a000000000000000000000000000000000000000000000000000000000815260040161080190612ad2565b60405180910390fd5b610815838383611291565b505050565b6108226114f8565b61082a611576565b565b60011515600960003373ffffffffffffffffffffffffffffffffffffffff1673ffffffffffffffffffffffffffffffffffffffff16815260200190815260200160002060009054906101000a900460ff1615151461088957600080fd5b600061089560086115d9565b90506108a160086115e7565b6108ab82826115fd565b6108cd816040518060800160405280606081526020016133306060913961161b565b5050565b6108ec83838360405180602001604052806000815250610df9565b505050565b6000600760009054906101000a900460ff16905090565b60011515600960003373ffffffffffffffffffffffffffffffffffffffff1673ffffffffffffffffffffffffffffffffffffffff16815260200190815260200160002060009054906101000a900460ff1615151461096557600080fd5b600073ffffffffffffffffffffffffffffffffffffffff168173ffffffffffffffffffffffffffffffffffffffff16141580156109eb5750600960008273ffffffffffffffffffffffffffffffffffffffff1673ffffffffffffffffffffffffffffffffffffffff16815260200190815260200160002060009054906101000a900460ff165b6109f457600080fd5b6000600960008373ffffffffffffffffffffffffffffffffffffffff1673ffffffffffffffffffffffffffffffffffffffff16815260200190815260200160002060006101000a81548160ff02191690831515021790555050565b6000806002600084815260200190815260200160002060009054906101000a900473ffffffffffffffffffffffffffffffffffffffff169050600073ffffffffffffffffffffffffffffffffffffffff168173ffffffffffffffffffffffffffffffffffffffff161415610af8576040517f08c379a0000000000000000000000000000000000000000000000000000000008152600401610aef90612a92565b60405180910390fd5b80915050919050565b60011515600960003373ffffffffffffffffffffffffffffffffffffffff1673ffffffffffffffffffffffffffffffffffffffff16815260200190815260200160002060009054906101000a900460ff16151514610b5e57600080fd5b600073ffffffffffffffffffffffffffffffffffffffff168173ffffffffffffffffffffffffffffffffffffffff1614158015610be55750600960008273ffffffffffffffffffffffffffffffffffffffff1673ffffffffffffffffffffffffffffffffffffffff16815260200190815260200160002060009054906101000a900460ff16155b610bee57600080fd5b6001600960008373ffffffffffffffffffffffffffffffffffffffff1673ffffffffffffffffffffffffffffffffffffffff16815260200190815260200160002060006101000a81548160ff02191690831515021790555050565b60008073ffffffffffffffffffffffffffffffffffffffff168273ffffffffffffffffffffffffffffffffffffffff161415610cba576040517f08c379a0000000000000000000000000000000000000000000000000000000008152600401610cb1906129f2565b60405180910390fd5b600360008373ffffffffffffffffffffffffffffffffffffffff1673ffffffffffffffffffffffffffffffffffffffff168152602001908152602001600020549050919050565b610d096114f8565b610d13600061168f565b565b610d1d6114f8565b610d25611755565b565b6000600760019054906101000a900473ffffffffffffffffffffffffffffffffffffffff16905090565b606060018054610d6090612d43565b80601f0160208091040260200160405190810160405280929190818152602001828054610d8c90612d43565b8015610dd95780601f10610dae57610100808354040283529160200191610dd9565b820191906000526020600020905b815481529060010190602001808311610dbc57829003601f168201915b5050505050905090565b610df5610dee61113b565b83836117b8565b5050565b610e0a610e0461113b565b836111fc565b610e49576040517f08c379a0000000000000000000000000000000000000000000000000000000008152600401610e4090612ad2565b60405180910390fd5b610e5584848484611925565b50505050565b6060610e66826110f0565b6000600660008481526020019081526020016000208054610e8690612d43565b80601f0160208091040260200160405190810160405280929190818152602001828054610eb290612d43565b8015610eff5780601f10610ed457610100808354040283529160200191610eff565b820191906000526020600020905b815481529060010190602001808311610ee257829003601f168201915b505050505090506000610f10611981565b9050600081511415610f26578192505050610f69565b600082511115610f5b578082604051602001610f4392919061282a565b60405160208183030381529060405292505050610f69565b610f6484611998565b925050505b919050565b6000600560008473ffffffffffffffffffffffffffffffffffffffff1673ffffffffffffffffffffffffffffffffffffffff16815260200190815260200160002060008373ffffffffffffffffffffffffffffffffffffffff1673ffffffffffffffffffffffffffffffffffffffff16815260200190815260200160002060009054906101000a900460ff16905092915050565b61100a6114f8565b600073ffffffffffffffffffffffffffffffffffffffff168173ffffffffffffffffffffffffffffffffffffffff16141561107a576040517f08c379a000000000000000000000000000000000000000000000000000000000815260040161107190612932565b60405180910390fd5b6110838161168f565b50565b60007f01ffc9a7000000000000000000000000000000000000000000000000000000007bffffffffffffffffffffffffffffffffffffffffffffffffffffffff1916827bffffffffffffffffffffffffffffffffffffffffffffffffffffffff1916149050919050565b6110f981611a00565b611138576040517f08c379a000000000000000000000000000000000000000000000000000000000815260040161112f90612a92565b60405180910390fd5b50565b600033905090565b816004600083815260200190815260200160002060006101000a81548173ffffffffffffffffffffffffffffffffffffffff021916908373ffffffffffffffffffffffffffffffffffffffff160217905550808273ffffffffffffffffffffffffffffffffffffffff166111b683610a4f565b73ffffffffffffffffffffffffffffffffffffffff167f8c5be1e5ebec7d5bd14f71427d1e84f3dd0314c0f7b2291e5b200ac8c7c3b92560405160405180910390a45050565b60008061120883610a4f565b90508073ffffffffffffffffffffffffffffffffffffffff168473ffffffffffffffffffffffffffffffffffffffff16148061124a57506112498185610f6e565b5b8061128857508373ffffffffffffffffffffffffffffffffffffffff166112708461065c565b73ffffffffffffffffffffffffffffffffffffffff16145b91505092915050565b8273ffffffffffffffffffffffffffffffffffffffff166112b182610a4f565b73ffffffffffffffffffffffffffffffffffffffff1614611307576040517f08c379a00000000000000000000000000000000000000000000000000000000081526004016112fe90612952565b60405180910390fd5b600073ffffffffffffffffffffffffffffffffffffffff168273ffffffffffffffffffffffffffffffffffffffff161415611377576040517f08c379a000000000000000000000000000000000000000000000000000000000815260040161136e90612992565b60405180910390fd5b611382838383611a6c565b61138d600082611143565b6001600360008573ffffffffffffffffffffffffffffffffffffffff1673ffffffffffffffffffffffffffffffffffffffff16815260200190815260200160002060008282546113dd9190612c59565b925050819055506001600360008473ffffffffffffffffffffffffffffffffffffffff1673ffffffffffffffffffffffffffffffffffffffff16815260200190815260200160002060008282546114349190612bd2565b92505081905550816002600083815260200190815260200160002060006101000a81548173ffffffffffffffffffffffffffffffffffffffff021916908373ffffffffffffffffffffffffffffffffffffffff160217905550808273ffffffffffffffffffffffffffffffffffffffff168473ffffffffffffffffffffffffffffffffffffffff167fddf252ad1be2c89b69c2b068fc378daa952ba7f163c4a11628f55a4df523b3ef60405160405180910390a46114f3838383611a84565b505050565b61150061113b565b73ffffffffffffffffffffffffffffffffffffffff1661151e610d27565b73ffffffffffffffffffffffffffffffffffffffff1614611574576040517f08c379a000000000000000000000000000000000000000000000000000000000815260040161156b90612a72565b60405180910390fd5b565b61157e611a89565b6000600760006101000a81548160ff0219169083151502179055507f5db9ee0a495bf2e6ff9c91a7834c1ba4fdd244a5e8aa4e537bd38aeae4b073aa6115c261113b565b6040516115cf919061284e565b60405180910390a1565b600081600001549050919050565b6001816000016000828254019250508190555050565b611617828260405180602001604052806000815250611ad2565b5050565b61162482611a00565b611663576040517f08c379a000000000000000000000000000000000000000000000000000000000815260040161165a90612a12565b60405180910390fd5b8060066000848152602001908152602001600020908051906020019061168a9291906120bd565b505050565b6000600760019054906101000a900473ffffffffffffffffffffffffffffffffffffffff16905081600760016101000a81548173ffffffffffffffffffffffffffffffffffffffff021916908373ffffffffffffffffffffffffffffffffffffffff1602179055508173ffffffffffffffffffffffffffffffffffffffff168173ffffffffffffffffffffffffffffffffffffffff167f8be0079c531659141344cd1fd0a4f28419497f9722a3daafe3b4186f6b6457e060405160405180910390a35050565b61175d611b2d565b6001600760006101000a81548160ff0219169083151502179055507f62e78cea01bee320cd4e420270b5ea74000d11b0c9f74754ebdbfc544b05a2586117a161113b565b6040516117ae919061284e565b60405180910390a1565b8173ffffffffffffffffffffffffffffffffffffffff168373ffffffffffffffffffffffffffffffffffffffff161415611827576040517f08c379a000000000000000000000000000000000000000000000000000000000815260040161181e906129b2565b60405180910390fd5b80600560008573ffffffffffffffffffffffffffffffffffffffff1673ffffffffffffffffffffffffffffffffffffffff16815260200190815260200160002060008473ffffffffffffffffffffffffffffffffffffffff1673ffffffffffffffffffffffffffffffffffffffff16815260200190815260200160002060006101000a81548160ff0219169083151502179055508173ffffffffffffffffffffffffffffffffffffffff168373ffffffffffffffffffffffffffffffffffffffff167f17307eab39ab6107e8899845ad3d59bd9653f200f220920489ca2b5937696c318360405161191891906128b5565b60405180910390a3505050565b611930848484611291565b61193c84848484611b77565b61197b576040517f08c379a000000000000000000000000000000000000000000000000000000000815260040161197290612912565b60405180910390fd5b50505050565b606060405180602001604052806000815250905090565b60606119a3826110f0565b60006119ad611981565b905060008151116119cd57604051806020016040528060008152506119f8565b806119d784611d0e565b6040516020016119e892919061282a565b6040516020818303038152906040525b915050919050565b60008073ffffffffffffffffffffffffffffffffffffffff166002600084815260200190815260200160002060009054906101000a900473ffffffffffffffffffffffffffffffffffffffff1673ffffffffffffffffffffffffffffffffffffffff1614159050919050565b611a74611b2d565b611a7f838383611ebb565b505050565b505050565b611a916108f1565b611ad0576040517f08c379a0000000000000000000000000000000000000000000000000000000008152600401611ac7906128f2565b60405180910390fd5b565b611adc8383611ec0565b611ae96000848484611b77565b611b28576040517f08c379a0000000000000000000000000000000000000000000000000000000008152600401611b1f90612912565b60405180910390fd5b505050565b611b356108f1565b15611b75576040517f08c379a0000000000000000000000000000000000000000000000000000000008152600401611b6c906129d2565b60405180910390fd5b565b6000611b988473ffffffffffffffffffffffffffffffffffffffff1661209a565b15611d01578373ffffffffffffffffffffffffffffffffffffffff1663150b7a02611bc161113b565b8786866040518563ffffffff1660e01b8152600401611be39493929190612869565b602060405180830381600087803b158015611bfd57600080fd5b505af1925050508015611c2e57506040513d601f19601f82011682018060405250810190611c2b91906124d8565b60015b611cb1573d8060008114611c5e576040519150601f19603f3d011682016040523d82523d6000602084013e611c63565b606091505b50600081511415611ca9576040517f08c379a0000000000000000000000000000000000000000000000000000000008152600401611ca090612912565b60405180910390fd5b805181602001fd5b63150b7a0260e01b7bffffffffffffffffffffffffffffffffffffffffffffffffffffffff1916817bffffffffffffffffffffffffffffffffffffffffffffffffffffffff191614915050611d06565b600190505b949350505050565b60606000821415611d56576040518060400160405280600181526020017f30000000000000000000000000000000000000000000000000000000000000008152509050611eb6565b600082905060005b60008214611d88578080611d7190612da6565b915050600a82611d819190612c28565b9150611d5e565b60008167ffffffffffffffff811115611dca577f4e487b7100000000000000000000000000000000000000000000000000000000600052604160045260246000fd5b6040519080825280601f01601f191660200182016040528015611dfc5781602001600182028036833780820191505090505b5090505b60008514611eaf57600182611e159190612c59565b9150600a85611e249190612def565b6030611e309190612bd2565b60f81b818381518110611e6c577f4e487b7100000000000000000000000000000000000000000000000000000000600052603260045260246000fd5b60200101907effffffffffffffffffffffffffffffffffffffffffffffffffffffffffffff1916908160001a905350600a85611ea89190612c28565b9450611e00565b8093505050505b919050565b505050565b600073ffffffffffffffffffffffffffffffffffffffff168273ffffffffffffffffffffffffffffffffffffffff161415611f30576040517f08c379a0000000000000000000000000000000000000000000000000000000008152600401611f2790612a52565b60405180910390fd5b611f3981611a00565b15611f79576040517f08c379a0000000000000000000000000000000000000000000000000000000008152600401611f7090612972565b60405180910390fd5b611f8560008383611a6c565b6001600360008473ffffffffffffffffffffffffffffffffffffffff1673ffffffffffffffffffffffffffffffffffffffff1681526020019081526020016000206000828254611fd59190612bd2565b92505081905550816002600083815260200190815260200160002060006101000a81548173ffffffffffffffffffffffffffffffffffffffff021916908373ffffffffffffffffffffffffffffffffffffffff160217905550808273ffffffffffffffffffffffffffffffffffffffff16600073ffffffffffffffffffffffffffffffffffffffff167fddf252ad1be2c89b69c2b068fc378daa952ba7f163c4a11628f55a4df523b3ef60405160405180910390a461209660008383611a84565b5050565b6000808273ffffffffffffffffffffffffffffffffffffffff163b119050919050565b8280546120c990612d43565b90600052602060002090601f0160209004810192826120eb5760008555612132565b82601f1061210457805160ff1916838001178555612132565b82800160010185558215612132579182015b82811115612131578251825591602001919060010190612116565b5b50905061213f9190612143565b5090565b5b8082111561215c576000816000905550600101612144565b5090565b600061217361216e84612b32565b612b0d565b9050808382526020820190508285602086028201111561219257600080fd5b60005b858110156121c257816121a8888261220a565b845260208401935060208301925050600181019050612195565b5050509392505050565b60006121df6121da84612b5e565b612b0d565b9050828152602081018484840111156121f757600080fd5b612202848285612d01565b509392505050565b600081359050612219816132d3565b92915050565b600082601f83011261223057600080fd5b8135612240848260208601612160565b91505092915050565b600081359050612258816132ea565b92915050565b60008135905061226d81613301565b92915050565b60008151905061228281613301565b92915050565b600082601f83011261229957600080fd5b81356122a98482602086016121cc565b91505092915050565b6000813590506122c181613318565b92915050565b6000602082840312156122d957600080fd5b60006122e78482850161220a565b91505092915050565b6000806040838503121561230357600080fd5b60006123118582860161220a565b92505060206123228582860161220a565b9150509250929050565b60008060006060848603121561234157600080fd5b600061234f8682870161220a565b93505060206123608682870161220a565b9250506040612371868287016122b2565b9150509250925092565b6000806000806080858703121561239157600080fd5b600061239f8782880161220a565b94505060206123b08782880161220a565b93505060406123c1878288016122b2565b925050606085013567ffffffffffffffff8111156123de57600080fd5b6123ea87828801612288565b91505092959194509250565b6000806040838503121561240957600080fd5b60006124178582860161220a565b925050602061242885828601612249565b9150509250929050565b6000806040838503121561244557600080fd5b60006124538582860161220a565b9250506020612464858286016122b2565b9150509250929050565b60006020828403121561248057600080fd5b600082013567ffffffffffffffff81111561249a57600080fd5b6124a68482850161221f565b91505092915050565b6000602082840312156124c157600080fd5b60006124cf8482850161225e565b91505092915050565b6000602082840312156124ea57600080fd5b60006124f884828501612273565b91505092915050565b60006020828403121561251357600080fd5b6000612521848285016122b2565b91505092915050565b61253381612c8d565b82525050565b61254281612c9f565b82525050565b600061255382612b8f565b61255d8185612ba5565b935061256d818560208601612d10565b61257681612edc565b840191505092915050565b600061258c82612b9a565b6125968185612bb6565b93506125a6818560208601612d10565b6125af81612edc565b840191505092915050565b60006125c582612b9a565b6125cf8185612bc7565b93506125df818560208601612d10565b80840191505092915050565b60006125f8601483612bb6565b915061260382612eed565b602082019050919050565b600061261b603283612bb6565b915061262682612f16565b604082019050919050565b600061263e602683612bb6565b915061264982612f65565b604082019050919050565b6000612661602583612bb6565b915061266c82612fb4565b604082019050919050565b6000612684601c83612bb6565b915061268f82613003565b602082019050919050565b60006126a7602483612bb6565b91506126b28261302c565b604082019050919050565b60006126ca601983612bb6565b91506126d58261307b565b602082019050919050565b60006126ed601083612bb6565b91506126f8826130a4565b602082019050919050565b6000612710602983612bb6565b915061271b826130cd565b604082019050919050565b6000612733602e83612bb6565b915061273e8261311c565b604082019050919050565b6000612756603e83612bb6565b91506127618261316b565b604082019050919050565b6000612779602083612bb6565b9150612784826131ba565b602082019050919050565b600061279c602083612bb6565b91506127a7826131e3565b602082019050919050565b60006127bf601883612bb6565b91506127ca8261320c565b602082019050919050565b60006127e2602183612bb6565b91506127ed82613235565b604082019050919050565b6000612805602e83612bb6565b915061281082613284565b604082019050919050565b61282481612cf7565b82525050565b600061283682856125ba565b915061284282846125ba565b91508190509392505050565b6000602082019050612863600083018461252a565b92915050565b600060808201905061287e600083018761252a565b61288b602083018661252a565b612898604083018561281b565b81810360608301526128aa8184612548565b905095945050505050565b60006020820190506128ca6000830184612539565b92915050565b600060208201905081810360008301526128ea8184612581565b905092915050565b6000602082019050818103600083015261290b816125eb565b9050919050565b6000602082019050818103600083015261292b8161260e565b9050919050565b6000602082019050818103600083015261294b81612631565b9050919050565b6000602082019050818103600083015261296b81612654565b9050919050565b6000602082019050818103600083015261298b81612677565b9050919050565b600060208201905081810360008301526129ab8161269a565b9050919050565b600060208201905081810360008301526129cb816126bd565b9050919050565b600060208201905081810360008301526129eb816126e0565b9050919050565b60006020820190508181036000830152612a0b81612703565b9050919050565b60006020820190508181036000830152612a2b81612726565b9050919050565b60006020820190508181036000830152612a4b81612749565b9050919050565b60006020820190508181036000830152612a6b8161276c565b9050919050565b60006020820190508181036000830152612a8b8161278f565b9050919050565b60006020820190508181036000830152612aab816127b2565b9050919050565b60006020820190508181036000830152612acb816127d5565b9050919050565b60006020820190508181036000830152612aeb816127f8565b9050919050565b6000602082019050612b07600083018461281b565b92915050565b6000612b17612b28565b9050612b238282612d75565b919050565b6000604051905090565b600067ffffffffffffffff821115612b4d57612b4c612ead565b5b602082029050602081019050919050565b600067ffffffffffffffff821115612b7957612b78612ead565b5b612b8282612edc565b9050602081019050919050565b600081519050919050565b600081519050919050565b600082825260208201905092915050565b600082825260208201905092915050565b600081905092915050565b6000612bdd82612cf7565b9150612be883612cf7565b9250827fffffffffffffffffffffffffffffffffffffffffffffffffffffffffffffffff03821115612c1d57612c1c612e20565b5b828201905092915050565b6000612c3382612cf7565b9150612c3e83612cf7565b925082612c4e57612c4d612e4f565b5b828204905092915050565b6000612c6482612cf7565b9150612c6f83612cf7565b925082821015612c8257612c81612e20565b5b828203905092915050565b6000612c9882612cd7565b9050919050565b60008115159050919050565b60007fffffffff0000000000000000000000000000000000000000000000000000000082169050919050565b600073ffffffffffffffffffffffffffffffffffffffff82169050919050565b6000819050919050565b82818337600083830152505050565b60005b83811015612d2e578082015181840152602081019050612d13565b83811115612d3d576000848401525b50505050565b60006002820490506001821680612d5b57607f821691505b60208210811415612d6f57612d6e612e7e565b5b50919050565b612d7e82612edc565b810181811067ffffffffffffffff82111715612d9d57612d9c612ead565b5b80604052505050565b6000612db182612cf7565b91507fffffffffffffffffffffffffffffffffffffffffffffffffffffffffffffffff821415612de457612de3612e20565b5b600182019050919050565b6000612dfa82612cf7565b9150612e0583612cf7565b925082612e1557612e14612e4f565b5b828206905092915050565b7f4e487b7100000000000000000000000000000000000000000000000000000000600052601160045260246000fd5b7f4e487b7100000000000000000000000000000000000000000000000000000000600052601260045260246000fd5b7f4e487b7100000000000000000000000000000000000000000000000000000000600052602260045260246000fd5b7f4e487b7100000000000000000000000000000000000000000000000000000000600052604160045260246000fd5b6000601f19601f8301169050919050565b7f5061757361626c653a206e6f7420706175736564000000000000000000000000600082015250565b7f4552433732313a207472616e7366657220746f206e6f6e20455243373231526560008201527f63656976657220696d706c656d656e7465720000000000000000000000000000602082015250565b7f4f776e61626c653a206e6577206f776e657220697320746865207a65726f206160008201527f6464726573730000000000000000000000000000000000000000000000000000602082015250565b7f4552433732313a207472616e736665722066726f6d20696e636f72726563742060008201527f6f776e6572000000000000000000000000000000000000000000000000000000602082015250565b7f4552433732313a20746f6b656e20616c7265616479206d696e74656400000000600082015250565b7f4552433732313a207472616e7366657220746f20746865207a65726f2061646460008201527f7265737300000000000000000000000000000000000000000000000000000000602082015250565b7f4552433732313a20617070726f766520746f2063616c6c657200000000000000600082015250565b7f5061757361626c653a2070617573656400000000000000000000000000000000600082015250565b7f4552433732313a2061646472657373207a65726f206973206e6f74206120766160008201527f6c6964206f776e65720000000000000000000000000000000000000000000000602082015250565b7f45524337323155524953746f726167653a2055524920736574206f66206e6f6e60008201527f6578697374656e7420746f6b656e000000000000000000000000000000000000602082015250565b7f4552433732313a20617070726f76652063616c6c6572206973206e6f7420746f60008201527f6b656e206f776e6572206e6f7220617070726f76656420666f7220616c6c0000602082015250565b7f4552433732313a206d696e7420746f20746865207a65726f2061646472657373600082015250565b7f4f776e61626c653a2063616c6c6572206973206e6f7420746865206f776e6572600082015250565b7f4552433732313a20696e76616c696420746f6b656e2049440000000000000000600082015250565b7f4552433732313a20617070726f76616c20746f2063757272656e74206f776e6560008201527f7200000000000000000000000000000000000000000000000000000000000000602082015250565b7f4552433732313a2063616c6c6572206973206e6f7420746f6b656e206f776e6560008201527f72206e6f7220617070726f766564000000000000000000000000000000000000602082015250565b6132dc81612c8d565b81146132e757600080fd5b50565b6132f381612c9f565b81146132fe57600080fd5b50565b61330a81612cab565b811461331557600080fd5b50565b61332181612cf7565b811461332c57600080fd5b5056fe68747470733a2f2f676174657761792e70696e6174612e636c6f75642f697066732f516d51395353753168387336516f5168667963546954486b417932363947326b377338567657653141374a5663762f6d656574696e675342542e6a736f6ea2646970667358221220e7bd8799137bf5fcbf8cc2f9d0ca318df469bbbd37993cea0b7624aaab2feb5f64736f6c63430008040033",
    "linkReferences": {},
    "deployedLinkReferences": {}
}