{
  "_format": "hh-sol-artifact-1",
  "contractName": "MeetingSBT",
  "sourceName": "contracts/MeetingSBT.sol",
  "abi": [
    {
      "inputs": [],
      "stateMutability": "nonpayable",
      "type": "constructor"
    },
    {
      "anonymous": false,
      "inputs": [
        {
          "indexed": true,
          "internalType": "address",
          "name": "owner",
          "type": "address"
        },
        {
          "indexed": true,
          "internalType": "address",
          "name": "approved",
          "type": "address"
        },
        {
          "indexed": true,
          "internalType": "uint256",
          "name": "tokenId",
          "type": "uint256"
        }
      ],
      "name": "Approval",
      "type": "event"
    },
    {
      "anonymous": false,
      "inputs": [
        {
          "indexed": true,
          "internalType": "address",
          "name": "owner",
          "type": "address"
        },
        {
          "indexed": true,
          "internalType": "address",
          "name": "operator",
          "type": "address"
        },
        {
          "indexed": false,
          "internalType": "bool",
          "name": "approved",
          "type": "bool"
        }
      ],
      "name": "ApprovalForAll",
      "type": "event"
    },
    {
      "anonymous": false,
      "inputs": [
        {
          "indexed": true,
          "internalType": "address",
          "name": "previousOwner",
          "type": "address"
        },
        {
          "indexed": true,
          "internalType": "address",
          "name": "newOwner",
          "type": "address"
        }
      ],
      "name": "OwnershipTransferred",
      "type": "event"
    },
    {
      "anonymous": false,
      "inputs": [
        {
          "indexed": false,
          "internalType": "address",
          "name": "account",
          "type": "address"
        }
      ],
      "name": "Paused",
      "type": "event"
    },
    {
      "anonymous": false,
      "inputs": [
        {
          "indexed": true,
          "internalType": "address",
          "name": "from",
          "type": "address"
        },
        {
          "indexed": true,
          "internalType": "address",
          "name": "to",
          "type": "address"
        },
        {
          "indexed": true,
          "internalType": "uint256",
          "name": "tokenId",
          "type": "uint256"
        }
      ],
      "name": "Transfer",
      "type": "event"
    },
    {
      "anonymous": false,
      "inputs": [
        {
          "indexed": false,
          "internalType": "address",
          "name": "account",
          "type": "address"
        }
      ],
      "name": "Unpaused",
      "type": "event"
    },
    {
      "inputs": [
        {
          "internalType": "address",
          "name": "userAddress",
          "type": "address"
        }
      ],
      "name": "addAdmin",
      "outputs": [],
      "stateMutability": "nonpayable",
      "type": "function"
    },
    {
      "inputs": [
        {
          "internalType": "address[]",
          "name": "recievers",
          "type": "address[]"
        }
      ],
      "name": "airDrop",
      "outputs": [],
      "stateMutability": "nonpayable",
      "type": "function"
    },
    {
      "inputs": [],
      "name": "allBurn",
      "outputs": [],
      "stateMutability": "nonpayable",
      "type": "function"
    },
    {
      "inputs": [
        {
          "internalType": "address",
          "name": "",
          "type": "address"
        },
        {
          "internalType": "uint256",
          "name": "",
          "type": "uint256"
        }
      ],
      "name": "approve",
      "outputs": [],
      "stateMutability": "nonpayable",
      "type": "function"
    },
    {
      "inputs": [
        {
          "internalType": "address",
          "name": "owner",
          "type": "address"
        }
      ],
      "name": "balanceOf",
      "outputs": [
        {
          "internalType": "uint256",
          "name": "",
          "type": "uint256"
        }
      ],
      "stateMutability": "view",
      "type": "function"
    },
    {
      "inputs": [
        {
          "internalType": "uint256",
          "name": "tokenId",
          "type": "uint256"
        }
      ],
      "name": "burn",
      "outputs": [],
      "stateMutability": "nonpayable",
      "type": "function"
    },
    {
      "inputs": [
        {
          "internalType": "address",
          "name": "userAddress",
          "type": "address"
        }
      ],
      "name": "checkAdmin",
      "outputs": [
        {
          "internalType": "bool",
          "name": "",
          "type": "bool"
        }
      ],
      "stateMutability": "view",
      "type": "function"
    },
    {
      "inputs": [
        {
          "internalType": "address",
          "name": "userAddress",
          "type": "address"
        }
      ],
      "name": "delAdmin",
      "outputs": [],
      "stateMutability": "nonpayable",
      "type": "function"
    },
    {
      "inputs": [
        {
          "internalType": "uint256",
          "name": "tokenId",
          "type": "uint256"
        }
      ],
      "name": "getApproved",
      "outputs": [
        {
          "internalType": "address",
          "name": "",
          "type": "address"
        }
      ],
      "stateMutability": "view",
      "type": "function"
    },
    {
      "inputs": [],
      "name": "get_metadataURI",
      "outputs": [
        {
          "internalType": "string",
          "name": "URI",
          "type": "string"
        }
      ],
      "stateMutability": "view",
      "type": "function"
    },
    {
      "inputs": [
        {
          "internalType": "address",
          "name": "owner",
          "type": "address"
        },
        {
          "internalType": "address",
          "name": "operator",
          "type": "address"
        }
      ],
      "name": "isApprovedForAll",
      "outputs": [
        {
          "internalType": "bool",
          "name": "",
          "type": "bool"
        }
      ],
      "stateMutability": "view",
      "type": "function"
    },
    {
      "inputs": [],
      "name": "metadata_URI",
      "outputs": [
        {
          "internalType": "string",
          "name": "",
          "type": "string"
        }
      ],
      "stateMutability": "view",
      "type": "function"
    },
    {
      "inputs": [],
      "name": "name",
      "outputs": [
        {
          "internalType": "string",
          "name": "",
          "type": "string"
        }
      ],
      "stateMutability": "view",
      "type": "function"
    },
    {
      "inputs": [],
      "name": "owner",
      "outputs": [
        {
          "internalType": "address",
          "name": "",
          "type": "address"
        }
      ],
      "stateMutability": "view",
      "type": "function"
    },
    {
      "inputs": [
        {
          "internalType": "uint256",
          "name": "tokenId",
          "type": "uint256"
        }
      ],
      "name": "ownerOf",
      "outputs": [
        {
          "internalType": "address",
          "name": "",
          "type": "address"
        }
      ],
      "stateMutability": "view",
      "type": "function"
    },
    {
      "inputs": [],
      "name": "pause",
      "outputs": [],
      "stateMutability": "nonpayable",
      "type": "function"
    },
    {
      "inputs": [],
      "name": "paused",
      "outputs": [
        {
          "internalType": "bool",
          "name": "",
          "type": "bool"
        }
      ],
      "stateMutability": "view",
      "type": "function"
    },
    {
      "inputs": [],
      "name": "renounceOwnership",
      "outputs": [],
      "stateMutability": "nonpayable",
      "type": "function"
    },
    {
      "inputs": [
        {
          "internalType": "address",
          "name": "to",
          "type": "address"
        }
      ],
      "name": "safeMint",
      "outputs": [],
      "stateMutability": "nonpayable",
      "type": "function"
    },
    {
      "inputs": [
        {
          "internalType": "address",
          "name": "from",
          "type": "address"
        },
        {
          "internalType": "address",
          "name": "to",
          "type": "address"
        },
        {
          "internalType": "uint256",
          "name": "tokenId",
          "type": "uint256"
        }
      ],
      "name": "safeTransferFrom",
      "outputs": [],
      "stateMutability": "nonpayable",
      "type": "function"
    },
    {
      "inputs": [
        {
          "internalType": "address",
          "name": "from",
          "type": "address"
        },
        {
          "internalType": "address",
          "name": "to",
          "type": "address"
        },
        {
          "internalType": "uint256",
          "name": "tokenId",
          "type": "uint256"
        },
        {
          "internalType": "bytes",
          "name": "data",
          "type": "bytes"
        }
      ],
      "name": "safeTransferFrom",
      "outputs": [],
      "stateMutability": "nonpayable",
      "type": "function"
    },
    {
      "inputs": [
        {
          "internalType": "address",
          "name": "",
          "type": "address"
        },
        {
          "internalType": "bool",
          "name": "",
          "type": "bool"
        }
      ],
      "name": "setApprovalForAll",
      "outputs": [],
      "stateMutability": "nonpayable",
      "type": "function"
    },
    {
      "inputs": [
        {
          "internalType": "string",
          "name": "URI",
          "type": "string"
        }
      ],
      "name": "set_metadataURI",
      "outputs": [],
      "stateMutability": "nonpayable",
      "type": "function"
    },
    {
      "inputs": [
        {
          "internalType": "bytes4",
          "name": "interfaceId",
          "type": "bytes4"
        }
      ],
      "name": "supportsInterface",
      "outputs": [
        {
          "internalType": "bool",
          "name": "",
          "type": "bool"
        }
      ],
      "stateMutability": "view",
      "type": "function"
    },
    {
      "inputs": [],
      "name": "symbol",
      "outputs": [
        {
          "internalType": "string",
          "name": "",
          "type": "string"
        }
      ],
      "stateMutability": "view",
      "type": "function"
    },
    {
      "inputs": [
        {
          "internalType": "uint256",
          "name": "tokenId",
          "type": "uint256"
        }
      ],
      "name": "tokenURI",
      "outputs": [
        {
          "internalType": "string",
          "name": "",
          "type": "string"
        }
      ],
      "stateMutability": "view",
      "type": "function"
    },
    {
      "inputs": [
        {
          "internalType": "address",
          "name": "from",
          "type": "address"
        },
        {
          "internalType": "address",
          "name": "to",
          "type": "address"
        },
        {
          "internalType": "uint256",
          "name": "tokenId",
          "type": "uint256"
        }
      ],
      "name": "transferFrom",
      "outputs": [],
      "stateMutability": "nonpayable",
      "type": "function"
    },
    {
      "inputs": [
        {
          "internalType": "address",
          "name": "newOwner",
          "type": "address"
        }
      ],
      "name": "transferOwnership",
      "outputs": [],
      "stateMutability": "nonpayable",
      "type": "function"
    },
    {
      "inputs": [],
      "name": "unpause",
      "outputs": [],
      "stateMutability": "nonpayable",
      "type": "function"
    }
  ],
  "bytecode": "0x60806040523480156200001157600080fd5b506040518060400160405280601a81526020017f53686962757961205157532054616c6b204576656e74205342540000000000008152506040518060400160405280600481526020017f4b4c41420000000000000000000000000000000000000000000000000000000081525081600090805190602001906200009692919062000219565b508060019080519060200190620000af92919062000219565b5050506000600760006101000a81548160ff021916908315150217905550620000ed620000e16200014b60201b60201c565b6200015360201b60201c565b6001600960003373ffffffffffffffffffffffffffffffffffffffff1673ffffffffffffffffffffffffffffffffffffffff16815260200190815260200160002060006101000a81548160ff0219169083151502179055506200032e565b600033905090565b6000600760019054906101000a900473ffffffffffffffffffffffffffffffffffffffff16905081600760016101000a81548173ffffffffffffffffffffffffffffffffffffffff021916908373ffffffffffffffffffffffffffffffffffffffff1602179055508173ffffffffffffffffffffffffffffffffffffffff168173ffffffffffffffffffffffffffffffffffffffff167f8be0079c531659141344cd1fd0a4f28419497f9722a3daafe3b4186f6b6457e060405160405180910390a35050565b8280546200022790620002f8565b90600052602060002090601f0160209004810192826200024b576000855562000297565b82601f106200026657805160ff191683800117855562000297565b8280016001018555821562000297579182015b828111156200029657825182559160200191906001019062000279565b5b509050620002a69190620002aa565b5090565b5b80821115620002c5576000816000905550600101620002ab565b5090565b7f4e487b7100000000000000000000000000000000000000000000000000000000600052602260045260246000fd5b600060028204905060018216806200031157607f821691505b60208210811415620003285762000327620002c9565b5b50919050565b613953806200033e6000396000f3fe608060405234801561001057600080fd5b50600436106101ce5760003560e01c806370a0823111610104578063a22cb465116100a2578063c87b56dd11610071578063c87b56dd146104b5578063d1a64b41146104e5578063e985e9c514610503578063f2fde38b14610533576101ce565b8063a22cb46514610455578063b88d4fde14610471578063c1f2693b1461048d578063c4447fe2146104ab576101ce565b80638da5cb5b116100de5780638da5cb5b146103cd5780639026dee8146103eb57806395d89b411461041b578063962276d414610439576101ce565b806370a0823114610389578063715018a6146103b95780638456cb59146103c3576101ce565b806340d097c3116101715780635c975abb1161014b5780635c975abb1461030357806362d91855146103215780636352211e1461033d578063704802751461036d576101ce565b806340d097c3146102af57806342842e0e146102cb57806342966c68146102e7576101ce565b8063081812fc116101ad578063081812fc1461023d578063095ea7b31461026d57806323b872dd146102895780633f4ba83a146102a5576101ce565b8062b6849f146101d357806301ffc9a7146101ef57806306fdde031461021f575b600080fd5b6101ed60048036038101906101e891906126f6565b61054f565b005b61020960048036038101906102049190612797565b6105f2565b60405161021691906127df565b60405180910390f35b6102276106d4565b6040516102349190612882565b60405180910390f35b610257600480360381019061025291906128da565b610766565b6040516102649190612916565b60405180910390f35b61028760048036038101906102829190612931565b6107ac565b005b6102a3600480360381019061029e9190612971565b6107e7565b005b6102ad610847565b005b6102c960048036038101906102c491906129c4565b610859565b005b6102e560048036038101906102e09190612971565b610910565b005b61030160048036038101906102fc91906128da565b610930565b005b61030b61093c565b60405161031891906127df565b60405180910390f35b61033b600480360381019061033691906129c4565b610953565b005b610357600480360381019061035291906128da565b610a9a565b6040516103649190612916565b60405180910390f35b610387600480360381019061038291906129c4565b610b4c565b005b6103a3600480360381019061039e91906129c4565b610c94565b6040516103b09190612a00565b60405180910390f35b6103c1610d4c565b005b6103cb610d60565b005b6103d5610d72565b6040516103e29190612916565b60405180910390f35b610405600480360381019061040091906129c4565b610d9c565b60405161041291906127df565b60405180910390f35b610423610e3b565b6040516104309190612882565b60405180910390f35b610453600480360381019061044e9190612ad0565b610ecd565b005b61046f600480360381019061046a9190612b45565b610f44565b005b61048b60048036038101906104869190612c26565b610f89565b005b610495610feb565b6040516104a29190612882565b60405180910390f35b6104b361107d565b005b6104cf60048036038101906104ca91906128da565b611113565b6040516104dc9190612882565b60405180910390f35b6104ed611226565b6040516104fa9190612882565b60405180910390f35b61051d60048036038101906105189190612ca9565b6112b4565b60405161052a91906127df565b60405180910390f35b61054d600480360381019061054891906129c4565b611348565b005b60011515600960003373ffffffffffffffffffffffffffffffffffffffff1673ffffffffffffffffffffffffffffffffffffffff16815260200190815260200160002060009054906101000a900460ff161515146105ac57600080fd5b60005b81518110156105ee576105db8282815181106105ce576105cd612ce9565b5b6020026020010151610859565b80806105e690612d47565b9150506105af565b5050565b60007f80ac58cd000000000000000000000000000000000000000000000000000000007bffffffffffffffffffffffffffffffffffffffffffffffffffffffff1916827bffffffffffffffffffffffffffffffffffffffffffffffffffffffff191614806106bd57507f5b5e139f000000000000000000000000000000000000000000000000000000007bffffffffffffffffffffffffffffffffffffffffffffffffffffffff1916827bffffffffffffffffffffffffffffffffffffffffffffffffffffffff1916145b806106cd57506106cc826113cc565b5b9050919050565b6060600080546106e390612dbf565b80601f016020809104026020016040519081016040528092919081815260200182805461070f90612dbf565b801561075c5780601f106107315761010080835404028352916020019161075c565b820191906000526020600020905b81548152906001019060200180831161073f57829003601f168201915b5050505050905090565b600061077182611436565b6004600083815260200190815260200160002060009054906101000a900473ffffffffffffffffffffffffffffffffffffffff169050919050565b6040517f08c379a00000000000000000000000000000000000000000000000000000000081526004016107de90612e3d565b60405180910390fd5b6107f86107f2611481565b82611489565b610837576040517f08c379a000000000000000000000000000000000000000000000000000000000815260040161082e90612ecf565b60405180910390fd5b61084283838361151e565b505050565b61084f611785565b610857611803565b565b60011515600960003373ffffffffffffffffffffffffffffffffffffffff1673ffffffffffffffffffffffffffffffffffffffff16815260200190815260200160002060009054906101000a900460ff161515146108b657600080fd5b60006108c26008611866565b90506108ce6008611874565b6108d8828261188a565b61090c81600a6108e7846118a8565b6040516020016108f8929190612fbf565b604051602081830303815290604052611a09565b5050565b61092b83838360405180602001604052806000815250610f89565b505050565b61093981611a7d565b50565b6000600760009054906101000a900460ff16905090565b60011515600960003373ffffffffffffffffffffffffffffffffffffffff1673ffffffffffffffffffffffffffffffffffffffff16815260200190815260200160002060009054906101000a900460ff161515146109b057600080fd5b600073ffffffffffffffffffffffffffffffffffffffff168173ffffffffffffffffffffffffffffffffffffffff1614158015610a365750600960008273ffffffffffffffffffffffffffffffffffffffff1673ffffffffffffffffffffffffffffffffffffffff16815260200190815260200160002060009054906101000a900460ff165b610a3f57600080fd5b6000600960008373ffffffffffffffffffffffffffffffffffffffff1673ffffffffffffffffffffffffffffffffffffffff16815260200190815260200160002060006101000a81548160ff02191690831515021790555050565b6000806002600084815260200190815260200160002060009054906101000a900473ffffffffffffffffffffffffffffffffffffffff169050600073ffffffffffffffffffffffffffffffffffffffff168173ffffffffffffffffffffffffffffffffffffffff161415610b43576040517f08c379a0000000000000000000000000000000000000000000000000000000008152600401610b3a9061302f565b60405180910390fd5b80915050919050565b60011515600960003373ffffffffffffffffffffffffffffffffffffffff1673ffffffffffffffffffffffffffffffffffffffff16815260200190815260200160002060009054906101000a900460ff16151514610ba957600080fd5b600073ffffffffffffffffffffffffffffffffffffffff168173ffffffffffffffffffffffffffffffffffffffff1614158015610c305750600960008273ffffffffffffffffffffffffffffffffffffffff1673ffffffffffffffffffffffffffffffffffffffff16815260200190815260200160002060009054906101000a900460ff16155b610c3957600080fd5b6001600960008373ffffffffffffffffffffffffffffffffffffffff1673ffffffffffffffffffffffffffffffffffffffff16815260200190815260200160002060006101000a81548160ff02191690831515021790555050565b60008073ffffffffffffffffffffffffffffffffffffffff168273ffffffffffffffffffffffffffffffffffffffff161415610d05576040517f08c379a0000000000000000000000000000000000000000000000000000000008152600401610cfc906130c1565b60405180910390fd5b600360008373ffffffffffffffffffffffffffffffffffffffff1673ffffffffffffffffffffffffffffffffffffffff168152602001908152602001600020549050919050565b610d54611785565b610d5e6000611ad0565b565b610d68611785565b610d70611b96565b565b6000600760019054906101000a900473ffffffffffffffffffffffffffffffffffffffff16905090565b60008073ffffffffffffffffffffffffffffffffffffffff168273ffffffffffffffffffffffffffffffffffffffff1614158015610e235750600960008373ffffffffffffffffffffffffffffffffffffffff1673ffffffffffffffffffffffffffffffffffffffff16815260200190815260200160002060009054906101000a900460ff165b15610e315760019050610e36565b600090505b919050565b606060018054610e4a90612dbf565b80601f0160208091040260200160405190810160405280929190818152602001828054610e7690612dbf565b8015610ec35780601f10610e9857610100808354040283529160200191610ec3565b820191906000526020600020905b815481529060010190602001808311610ea657829003601f168201915b5050505050905090565b60011515600960003373ffffffffffffffffffffffffffffffffffffffff1673ffffffffffffffffffffffffffffffffffffffff16815260200190815260200160002060009054906101000a900460ff16151514610f2a57600080fd5b80600a9080519060200190610f40929190612448565b5050565b6000610f85576040517f08c379a0000000000000000000000000000000000000000000000000000000008152600401610f7c90613153565b60405180910390fd5b5050565b610f9a610f94611481565b83611489565b610fd9576040517f08c379a0000000000000000000000000000000000000000000000000000000008152600401610fd090612ecf565b60405180910390fd5b610fe584848484611bf9565b50505050565b6060600a8054610ffa90612dbf565b80601f016020809104026020016040519081016040528092919081815260200182805461102690612dbf565b80156110735780601f1061104857610100808354040283529160200191611073565b820191906000526020600020905b81548152906001019060200180831161105657829003601f168201915b5050505050905090565b60011515600960003373ffffffffffffffffffffffffffffffffffffffff1673ffffffffffffffffffffffffffffffffffffffff16815260200190815260200160002060009054906101000a900460ff161515146110da57600080fd5b60006110e66008611866565b905060005b8181101561110f576110fc81610930565b808061110790612d47565b9150506110eb565b5050565b606061111e82611436565b600060066000848152602001908152602001600020805461113e90612dbf565b80601f016020809104026020016040519081016040528092919081815260200182805461116a90612dbf565b80156111b75780601f1061118c576101008083540402835291602001916111b7565b820191906000526020600020905b81548152906001019060200180831161119a57829003601f168201915b5050505050905060006111c8611c55565b90506000815114156111de578192505050611221565b6000825111156112135780826040516020016111fb929190613173565b60405160208183030381529060405292505050611221565b61121c84611c6c565b925050505b919050565b600a805461123390612dbf565b80601f016020809104026020016040519081016040528092919081815260200182805461125f90612dbf565b80156112ac5780601f10611281576101008083540402835291602001916112ac565b820191906000526020600020905b81548152906001019060200180831161128f57829003601f168201915b505050505081565b6000600560008473ffffffffffffffffffffffffffffffffffffffff1673ffffffffffffffffffffffffffffffffffffffff16815260200190815260200160002060008373ffffffffffffffffffffffffffffffffffffffff1673ffffffffffffffffffffffffffffffffffffffff16815260200190815260200160002060009054906101000a900460ff16905092915050565b611350611785565b600073ffffffffffffffffffffffffffffffffffffffff168173ffffffffffffffffffffffffffffffffffffffff1614156113c0576040517f08c379a00000000000000000000000000000000000000000000000000000000081526004016113b790613209565b60405180910390fd5b6113c981611ad0565b50565b60007f01ffc9a7000000000000000000000000000000000000000000000000000000007bffffffffffffffffffffffffffffffffffffffffffffffffffffffff1916827bffffffffffffffffffffffffffffffffffffffffffffffffffffffff1916149050919050565b61143f81611cd4565b61147e576040517f08c379a00000000000000000000000000000000000000000000000000000000081526004016114759061302f565b60405180910390fd5b50565b600033905090565b60008061149583610a9a565b90508073ffffffffffffffffffffffffffffffffffffffff168473ffffffffffffffffffffffffffffffffffffffff1614806114d757506114d681856112b4565b5b8061151557508373ffffffffffffffffffffffffffffffffffffffff166114fd84610766565b73ffffffffffffffffffffffffffffffffffffffff16145b91505092915050565b8273ffffffffffffffffffffffffffffffffffffffff1661153e82610a9a565b73ffffffffffffffffffffffffffffffffffffffff1614611594576040517f08c379a000000000000000000000000000000000000000000000000000000000815260040161158b9061329b565b60405180910390fd5b600073ffffffffffffffffffffffffffffffffffffffff168273ffffffffffffffffffffffffffffffffffffffff161415611604576040517f08c379a00000000000000000000000000000000000000000000000000000000081526004016115fb9061332d565b60405180910390fd5b61160f838383611d40565b61161a600082611deb565b6001600360008573ffffffffffffffffffffffffffffffffffffffff1673ffffffffffffffffffffffffffffffffffffffff168152602001908152602001600020600082825461166a919061334d565b925050819055506001600360008473ffffffffffffffffffffffffffffffffffffffff1673ffffffffffffffffffffffffffffffffffffffff16815260200190815260200160002060008282546116c19190613381565b92505081905550816002600083815260200190815260200160002060006101000a81548173ffffffffffffffffffffffffffffffffffffffff021916908373ffffffffffffffffffffffffffffffffffffffff160217905550808273ffffffffffffffffffffffffffffffffffffffff168473ffffffffffffffffffffffffffffffffffffffff167fddf252ad1be2c89b69c2b068fc378daa952ba7f163c4a11628f55a4df523b3ef60405160405180910390a4611780838383611ea4565b505050565b61178d611481565b73ffffffffffffffffffffffffffffffffffffffff166117ab610d72565b73ffffffffffffffffffffffffffffffffffffffff1614611801576040517f08c379a00000000000000000000000000000000000000000000000000000000081526004016117f890613423565b60405180910390fd5b565b61180b611ea9565b6000600760006101000a81548160ff0219169083151502179055507f5db9ee0a495bf2e6ff9c91a7834c1ba4fdd244a5e8aa4e537bd38aeae4b073aa61184f611481565b60405161185c9190612916565b60405180910390a1565b600081600001549050919050565b6001816000016000828254019250508190555050565b6118a4828260405180602001604052806000815250611ef2565b5050565b606060008214156118f0576040518060400160405280600181526020017f30000000000000000000000000000000000000000000000000000000000000008152509050611a04565b600082905060005b6000821461192257808061190b90612d47565b915050600a8261191b9190613472565b91506118f8565b60008167ffffffffffffffff81111561193e5761193d612555565b5b6040519080825280601f01601f1916602001820160405280156119705781602001600182028036833780820191505090505b5090505b600085146119fd57600182611989919061334d565b9150600a8561199891906134a3565b60306119a49190613381565b60f81b8183815181106119ba576119b9612ce9565b5b60200101907effffffffffffffffffffffffffffffffffffffffffffffffffffffffffffff1916908160001a905350600a856119f69190613472565b9450611974565b8093505050505b919050565b611a1282611cd4565b611a51576040517f08c379a0000000000000000000000000000000000000000000000000000000008152600401611a4890613546565b60405180910390fd5b80600660008481526020019081526020016000209080519060200190611a78929190612448565b505050565b611a8681611f4d565b6000600660008381526020019081526020016000208054611aa690612dbf565b905014611acd57600660008281526020019081526020016000206000611acc91906124ce565b5b50565b6000600760019054906101000a900473ffffffffffffffffffffffffffffffffffffffff16905081600760016101000a81548173ffffffffffffffffffffffffffffffffffffffff021916908373ffffffffffffffffffffffffffffffffffffffff1602179055508173ffffffffffffffffffffffffffffffffffffffff168173ffffffffffffffffffffffffffffffffffffffff167f8be0079c531659141344cd1fd0a4f28419497f9722a3daafe3b4186f6b6457e060405160405180910390a35050565b611b9e61206a565b6001600760006101000a81548160ff0219169083151502179055507f62e78cea01bee320cd4e420270b5ea74000d11b0c9f74754ebdbfc544b05a258611be2611481565b604051611bef9190612916565b60405180910390a1565b611c0484848461151e565b611c10848484846120b4565b611c4f576040517f08c379a0000000000000000000000000000000000000000000000000000000008152600401611c46906135d8565b60405180910390fd5b50505050565b606060405180602001604052806000815250905090565b6060611c7782611436565b6000611c81611c55565b90506000815111611ca15760405180602001604052806000815250611ccc565b80611cab846118a8565b604051602001611cbc929190613173565b6040516020818303038152906040525b915050919050565b60008073ffffffffffffffffffffffffffffffffffffffff166002600084815260200190815260200160002060009054906101000a900473ffffffffffffffffffffffffffffffffffffffff1673ffffffffffffffffffffffffffffffffffffffff1614159050919050565b600073ffffffffffffffffffffffffffffffffffffffff168373ffffffffffffffffffffffffffffffffffffffff161480611da75750600073ffffffffffffffffffffffffffffffffffffffff168273ffffffffffffffffffffffffffffffffffffffff16145b611de6576040517f08c379a0000000000000000000000000000000000000000000000000000000008152600401611ddd9061366a565b60405180910390fd5b505050565b816004600083815260200190815260200160002060006101000a81548173ffffffffffffffffffffffffffffffffffffffff021916908373ffffffffffffffffffffffffffffffffffffffff160217905550808273ffffffffffffffffffffffffffffffffffffffff16611e5e83610a9a565b73ffffffffffffffffffffffffffffffffffffffff167f8c5be1e5ebec7d5bd14f71427d1e84f3dd0314c0f7b2291e5b200ac8c7c3b92560405160405180910390a45050565b505050565b611eb161093c565b611ef0576040517f08c379a0000000000000000000000000000000000000000000000000000000008152600401611ee7906136d6565b60405180910390fd5b565b611efc838361224b565b611f0960008484846120b4565b611f48576040517f08c379a0000000000000000000000000000000000000000000000000000000008152600401611f3f906135d8565b60405180910390fd5b505050565b6000611f5882610a9a565b9050611f6681600084611d40565b611f71600083611deb565b6001600360008373ffffffffffffffffffffffffffffffffffffffff1673ffffffffffffffffffffffffffffffffffffffff1681526020019081526020016000206000828254611fc1919061334d565b925050819055506002600083815260200190815260200160002060006101000a81549073ffffffffffffffffffffffffffffffffffffffff021916905581600073ffffffffffffffffffffffffffffffffffffffff168273ffffffffffffffffffffffffffffffffffffffff167fddf252ad1be2c89b69c2b068fc378daa952ba7f163c4a11628f55a4df523b3ef60405160405180910390a461206681600084611ea4565b5050565b61207261093c565b156120b2576040517f08c379a00000000000000000000000000000000000000000000000000000000081526004016120a990613742565b60405180910390fd5b565b60006120d58473ffffffffffffffffffffffffffffffffffffffff16612425565b1561223e578373ffffffffffffffffffffffffffffffffffffffff1663150b7a026120fe611481565b8786866040518563ffffffff1660e01b815260040161212094939291906137b7565b602060405180830381600087803b15801561213a57600080fd5b505af192505050801561216b57506040513d601f19601f820116820180604052508101906121689190613818565b60015b6121ee573d806000811461219b576040519150601f19603f3d011682016040523d82523d6000602084013e6121a0565b606091505b506000815114156121e6576040517f08c379a00000000000000000000000000000000000000000000000000000000081526004016121dd906135d8565b60405180910390fd5b805181602001fd5b63150b7a0260e01b7bffffffffffffffffffffffffffffffffffffffffffffffffffffffff1916817bffffffffffffffffffffffffffffffffffffffffffffffffffffffff191614915050612243565b600190505b949350505050565b600073ffffffffffffffffffffffffffffffffffffffff168273ffffffffffffffffffffffffffffffffffffffff1614156122bb576040517f08c379a00000000000000000000000000000000000000000000000000000000081526004016122b290613891565b60405180910390fd5b6122c481611cd4565b15612304576040517f08c379a00000000000000000000000000000000000000000000000000000000081526004016122fb906138fd565b60405180910390fd5b61231060008383611d40565b6001600360008473ffffffffffffffffffffffffffffffffffffffff1673ffffffffffffffffffffffffffffffffffffffff16815260200190815260200160002060008282546123609190613381565b92505081905550816002600083815260200190815260200160002060006101000a81548173ffffffffffffffffffffffffffffffffffffffff021916908373ffffffffffffffffffffffffffffffffffffffff160217905550808273ffffffffffffffffffffffffffffffffffffffff16600073ffffffffffffffffffffffffffffffffffffffff167fddf252ad1be2c89b69c2b068fc378daa952ba7f163c4a11628f55a4df523b3ef60405160405180910390a461242160008383611ea4565b5050565b6000808273ffffffffffffffffffffffffffffffffffffffff163b119050919050565b82805461245490612dbf565b90600052602060002090601f01602090048101928261247657600085556124bd565b82601f1061248f57805160ff19168380011785556124bd565b828001600101855582156124bd579182015b828111156124bc5782518255916020019190600101906124a1565b5b5090506124ca919061250e565b5090565b5080546124da90612dbf565b6000825580601f106124ec575061250b565b601f01602090049060005260206000209081019061250a919061250e565b5b50565b5b8082111561252757600081600090555060010161250f565b5090565b6000604051905090565b600080fd5b600080fd5b600080fd5b6000601f19601f8301169050919050565b7f4e487b7100000000000000000000000000000000000000000000000000000000600052604160045260246000fd5b61258d82612544565b810181811067ffffffffffffffff821117156125ac576125ab612555565b5b80604052505050565b60006125bf61252b565b90506125cb8282612584565b919050565b600067ffffffffffffffff8211156125eb576125ea612555565b5b602082029050602081019050919050565b600080fd5b600073ffffffffffffffffffffffffffffffffffffffff82169050919050565b600061262c82612601565b9050919050565b61263c81612621565b811461264757600080fd5b50565b60008135905061265981612633565b92915050565b600061267261266d846125d0565b6125b5565b90508083825260208201905060208402830185811115612695576126946125fc565b5b835b818110156126be57806126aa888261264a565b845260208401935050602081019050612697565b5050509392505050565b600082601f8301126126dd576126dc61253f565b5b81356126ed84826020860161265f565b91505092915050565b60006020828403121561270c5761270b612535565b5b600082013567ffffffffffffffff81111561272a5761272961253a565b5b612736848285016126c8565b91505092915050565b60007fffffffff0000000000000000000000000000000000000000000000000000000082169050919050565b6127748161273f565b811461277f57600080fd5b50565b6000813590506127918161276b565b92915050565b6000602082840312156127ad576127ac612535565b5b60006127bb84828501612782565b91505092915050565b60008115159050919050565b6127d9816127c4565b82525050565b60006020820190506127f460008301846127d0565b92915050565b600081519050919050565b600082825260208201905092915050565b60005b83811015612834578082015181840152602081019050612819565b83811115612843576000848401525b50505050565b6000612854826127fa565b61285e8185612805565b935061286e818560208601612816565b61287781612544565b840191505092915050565b6000602082019050818103600083015261289c8184612849565b905092915050565b6000819050919050565b6128b7816128a4565b81146128c257600080fd5b50565b6000813590506128d4816128ae565b92915050565b6000602082840312156128f0576128ef612535565b5b60006128fe848285016128c5565b91505092915050565b61291081612621565b82525050565b600060208201905061292b6000830184612907565b92915050565b6000806040838503121561294857612947612535565b5b60006129568582860161264a565b9250506020612967858286016128c5565b9150509250929050565b60008060006060848603121561298a57612989612535565b5b60006129988682870161264a565b93505060206129a98682870161264a565b92505060406129ba868287016128c5565b9150509250925092565b6000602082840312156129da576129d9612535565b5b60006129e88482850161264a565b91505092915050565b6129fa816128a4565b82525050565b6000602082019050612a1560008301846129f1565b92915050565b600080fd5b600067ffffffffffffffff821115612a3b57612a3a612555565b5b612a4482612544565b9050602081019050919050565b82818337600083830152505050565b6000612a73612a6e84612a20565b6125b5565b905082815260208101848484011115612a8f57612a8e612a1b565b5b612a9a848285612a51565b509392505050565b600082601f830112612ab757612ab661253f565b5b8135612ac7848260208601612a60565b91505092915050565b600060208284031215612ae657612ae5612535565b5b600082013567ffffffffffffffff811115612b0457612b0361253a565b5b612b1084828501612aa2565b91505092915050565b612b22816127c4565b8114612b2d57600080fd5b50565b600081359050612b3f81612b19565b92915050565b60008060408385031215612b5c57612b5b612535565b5b6000612b6a8582860161264a565b9250506020612b7b85828601612b30565b9150509250929050565b600067ffffffffffffffff821115612ba057612b9f612555565b5b612ba982612544565b9050602081019050919050565b6000612bc9612bc484612b85565b6125b5565b905082815260208101848484011115612be557612be4612a1b565b5b612bf0848285612a51565b509392505050565b600082601f830112612c0d57612c0c61253f565b5b8135612c1d848260208601612bb6565b91505092915050565b60008060008060808587031215612c4057612c3f612535565b5b6000612c4e8782880161264a565b9450506020612c5f8782880161264a565b9350506040612c70878288016128c5565b925050606085013567ffffffffffffffff811115612c9157612c9061253a565b5b612c9d87828801612bf8565b91505092959194509250565b60008060408385031215612cc057612cbf612535565b5b6000612cce8582860161264a565b9250506020612cdf8582860161264a565b9150509250929050565b7f4e487b7100000000000000000000000000000000000000000000000000000000600052603260045260246000fd5b7f4e487b7100000000000000000000000000000000000000000000000000000000600052601160045260246000fd5b6000612d52826128a4565b91507fffffffffffffffffffffffffffffffffffffffffffffffffffffffffffffffff821415612d8557612d84612d18565b5b600182019050919050565b7f4e487b7100000000000000000000000000000000000000000000000000000000600052602260045260246000fd5b60006002820490506001821680612dd757607f821691505b60208210811415612deb57612dea612d90565b5b50919050565b7f617070726f7665206973206e6f7420617661696c61626c650000000000000000600082015250565b6000612e27601883612805565b9150612e3282612df1565b602082019050919050565b60006020820190508181036000830152612e5681612e1a565b9050919050565b7f4552433732313a2063616c6c6572206973206e6f7420746f6b656e206f776e6560008201527f72206e6f7220617070726f766564000000000000000000000000000000000000602082015250565b6000612eb9602e83612805565b9150612ec482612e5d565b604082019050919050565b60006020820190508181036000830152612ee881612eac565b9050919050565b600081905092915050565b60008190508160005260206000209050919050565b60008154612f1c81612dbf565b612f268186612eef565b94506001821660008114612f415760018114612f5257612f85565b60ff19831686528186019350612f85565b612f5b85612efa565b60005b83811015612f7d57815481890152600182019150602081019050612f5e565b838801955050505b50505092915050565b6000612f99826127fa565b612fa38185612eef565b9350612fb3818560208601612816565b80840191505092915050565b6000612fcb8285612f0f565b9150612fd78284612f8e565b91508190509392505050565b7f4552433732313a20696e76616c696420746f6b656e2049440000000000000000600082015250565b6000613019601883612805565b915061302482612fe3565b602082019050919050565b600060208201905081810360008301526130488161300c565b9050919050565b7f4552433732313a2061646472657373207a65726f206973206e6f74206120766160008201527f6c6964206f776e65720000000000000000000000000000000000000000000000602082015250565b60006130ab602983612805565b91506130b68261304f565b604082019050919050565b600060208201905081810360008301526130da8161309e565b9050919050565b7f5468697320746f6b656e206973205342542c20736f20746869732063616e206e60008201527f6f7420617070726f76652e000000000000000000000000000000000000000000602082015250565b600061313d602b83612805565b9150613148826130e1565b604082019050919050565b6000602082019050818103600083015261316c81613130565b9050919050565b600061317f8285612f8e565b915061318b8284612f8e565b91508190509392505050565b7f4f776e61626c653a206e6577206f776e657220697320746865207a65726f206160008201527f6464726573730000000000000000000000000000000000000000000000000000602082015250565b60006131f3602683612805565b91506131fe82613197565b604082019050919050565b60006020820190508181036000830152613222816131e6565b9050919050565b7f4552433732313a207472616e736665722066726f6d20696e636f72726563742060008201527f6f776e6572000000000000000000000000000000000000000000000000000000602082015250565b6000613285602583612805565b915061329082613229565b604082019050919050565b600060208201905081810360008301526132b481613278565b9050919050565b7f4552433732313a207472616e7366657220746f20746865207a65726f2061646460008201527f7265737300000000000000000000000000000000000000000000000000000000602082015250565b6000613317602483612805565b9150613322826132bb565b604082019050919050565b600060208201905081810360008301526133468161330a565b9050919050565b6000613358826128a4565b9150613363836128a4565b92508282101561337657613375612d18565b5b828203905092915050565b600061338c826128a4565b9150613397836128a4565b9250827fffffffffffffffffffffffffffffffffffffffffffffffffffffffffffffffff038211156133cc576133cb612d18565b5b828201905092915050565b7f4f776e61626c653a2063616c6c6572206973206e6f7420746865206f776e6572600082015250565b600061340d602083612805565b9150613418826133d7565b602082019050919050565b6000602082019050818103600083015261343c81613400565b9050919050565b7f4e487b7100000000000000000000000000000000000000000000000000000000600052601260045260246000fd5b600061347d826128a4565b9150613488836128a4565b92508261349857613497613443565b5b828204905092915050565b60006134ae826128a4565b91506134b9836128a4565b9250826134c9576134c8613443565b5b828206905092915050565b7f45524337323155524953746f726167653a2055524920736574206f66206e6f6e60008201527f6578697374656e7420746f6b656e000000000000000000000000000000000000602082015250565b6000613530602e83612805565b915061353b826134d4565b604082019050919050565b6000602082019050818103600083015261355f81613523565b9050919050565b7f4552433732313a207472616e7366657220746f206e6f6e20455243373231526560008201527f63656976657220696d706c656d656e7465720000000000000000000000000000602082015250565b60006135c2603283612805565b91506135cd82613566565b604082019050919050565b600060208201905081810360008301526135f1816135b5565b9050919050565b7f5468697320746f6b656e206973205342542c20736f20746869732063616e206e60008201527f6f74207472616e736665722e0000000000000000000000000000000000000000602082015250565b6000613654602c83612805565b915061365f826135f8565b604082019050919050565b6000602082019050818103600083015261368381613647565b9050919050565b7f5061757361626c653a206e6f7420706175736564000000000000000000000000600082015250565b60006136c0601483612805565b91506136cb8261368a565b602082019050919050565b600060208201905081810360008301526136ef816136b3565b9050919050565b7f5061757361626c653a2070617573656400000000000000000000000000000000600082015250565b600061372c601083612805565b9150613737826136f6565b602082019050919050565b6000602082019050818103600083015261375b8161371f565b9050919050565b600081519050919050565b600082825260208201905092915050565b600061378982613762565b613793818561376d565b93506137a3818560208601612816565b6137ac81612544565b840191505092915050565b60006080820190506137cc6000830187612907565b6137d96020830186612907565b6137e660408301856129f1565b81810360608301526137f8818461377e565b905095945050505050565b6000815190506138128161276b565b92915050565b60006020828403121561382e5761382d612535565b5b600061383c84828501613803565b91505092915050565b7f4552433732313a206d696e7420746f20746865207a65726f2061646472657373600082015250565b600061387b602083612805565b915061388682613845565b602082019050919050565b600060208201905081810360008301526138aa8161386e565b9050919050565b7f4552433732313a20746f6b656e20616c7265616479206d696e74656400000000600082015250565b60006138e7601c83612805565b91506138f2826138b1565b602082019050919050565b60006020820190508181036000830152613916816138da565b905091905056fea264697066735822122057318d3acd541678885d72cac7e957879a179b211c209b16c0be9271139fecd664736f6c63430008090033",
  "linkReferences": {},
  "deployedLinkReferences": {}
}