{
  "_format": "hh-sol-artifact-1",
  "contractName": "MeetingSBT",
  "sourceName": "contracts/MeetingSBT.sol",
  "abi": [
    {
      "inputs": [],
      "stateMutability": "nonpayable",
      "type": "constructor"
    },
    {
      "anonymous": false,
      "inputs": [
        {
          "indexed": true,
          "internalType": "address",
          "name": "owner",
          "type": "address"
        },
        {
          "indexed": true,
          "internalType": "address",
          "name": "approved",
          "type": "address"
        },
        {
          "indexed": true,
          "internalType": "uint256",
          "name": "tokenId",
          "type": "uint256"
        }
      ],
      "name": "Approval",
      "type": "event"
    },
    {
      "anonymous": false,
      "inputs": [
        {
          "indexed": true,
          "internalType": "address",
          "name": "owner",
          "type": "address"
        },
        {
          "indexed": true,
          "internalType": "address",
          "name": "operator",
          "type": "address"
        },
        {
          "indexed": false,
          "internalType": "bool",
          "name": "approved",
          "type": "bool"
        }
      ],
      "name": "ApprovalForAll",
      "type": "event"
    },
    {
      "anonymous": false,
      "inputs": [
        {
          "indexed": true,
          "internalType": "address",
          "name": "previousOwner",
          "type": "address"
        },
        {
          "indexed": true,
          "internalType": "address",
          "name": "newOwner",
          "type": "address"
        }
      ],
      "name": "OwnershipTransferred",
      "type": "event"
    },
    {
      "anonymous": false,
      "inputs": [
        {
          "indexed": false,
          "internalType": "address",
          "name": "account",
          "type": "address"
        }
      ],
      "name": "Paused",
      "type": "event"
    },
    {
      "anonymous": false,
      "inputs": [
        {
          "indexed": true,
          "internalType": "address",
          "name": "from",
          "type": "address"
        },
        {
          "indexed": true,
          "internalType": "address",
          "name": "to",
          "type": "address"
        },
        {
          "indexed": true,
          "internalType": "uint256",
          "name": "tokenId",
          "type": "uint256"
        }
      ],
      "name": "Transfer",
      "type": "event"
    },
    {
      "anonymous": false,
      "inputs": [
        {
          "indexed": false,
          "internalType": "address",
          "name": "account",
          "type": "address"
        }
      ],
      "name": "Unpaused",
      "type": "event"
    },
    {
      "inputs": [
        {
          "internalType": "address",
          "name": "userAddress",
          "type": "address"
        }
      ],
      "name": "addAdmin",
      "outputs": [],
      "stateMutability": "nonpayable",
      "type": "function"
    },
    {
      "inputs": [
        {
          "internalType": "address[]",
          "name": "recievers",
          "type": "address[]"
        }
      ],
      "name": "airDrop",
      "outputs": [],
      "stateMutability": "nonpayable",
      "type": "function"
    },
    {
      "inputs": [
        {
          "internalType": "address",
          "name": "to",
          "type": "address"
        },
        {
          "internalType": "uint256",
          "name": "tokenId",
          "type": "uint256"
        }
      ],
      "name": "approve",
      "outputs": [],
      "stateMutability": "nonpayable",
      "type": "function"
    },
    {
      "inputs": [
        {
          "internalType": "address",
          "name": "owner",
          "type": "address"
        }
      ],
      "name": "balanceOf",
      "outputs": [
        {
          "internalType": "uint256",
          "name": "",
          "type": "uint256"
        }
      ],
      "stateMutability": "view",
      "type": "function"
    },
    {
      "inputs": [
        {
          "internalType": "address",
          "name": "userAddress",
          "type": "address"
        }
      ],
      "name": "checkAdmin",
      "outputs": [
        {
          "internalType": "bool",
          "name": "",
          "type": "bool"
        }
      ],
      "stateMutability": "view",
      "type": "function"
    },
    {
      "inputs": [
        {
          "internalType": "address",
          "name": "userAddress",
          "type": "address"
        }
      ],
      "name": "delAdmin",
      "outputs": [],
      "stateMutability": "nonpayable",
      "type": "function"
    },
    {
      "inputs": [
        {
          "internalType": "uint256",
          "name": "tokenId",
          "type": "uint256"
        }
      ],
      "name": "getApproved",
      "outputs": [
        {
          "internalType": "address",
          "name": "",
          "type": "address"
        }
      ],
      "stateMutability": "view",
      "type": "function"
    },
    {
      "inputs": [],
      "name": "get_metadataURI",
      "outputs": [
        {
          "internalType": "string",
          "name": "URI",
          "type": "string"
        }
      ],
      "stateMutability": "view",
      "type": "function"
    },
    {
      "inputs": [
        {
          "internalType": "address",
          "name": "owner",
          "type": "address"
        },
        {
          "internalType": "address",
          "name": "operator",
          "type": "address"
        }
      ],
      "name": "isApprovedForAll",
      "outputs": [
        {
          "internalType": "bool",
          "name": "",
          "type": "bool"
        }
      ],
      "stateMutability": "view",
      "type": "function"
    },
    {
      "inputs": [],
      "name": "metadata_URI",
      "outputs": [
        {
          "internalType": "string",
          "name": "",
          "type": "string"
        }
      ],
      "stateMutability": "view",
      "type": "function"
    },
    {
      "inputs": [],
      "name": "name",
      "outputs": [
        {
          "internalType": "string",
          "name": "",
          "type": "string"
        }
      ],
      "stateMutability": "view",
      "type": "function"
    },
    {
      "inputs": [],
      "name": "owner",
      "outputs": [
        {
          "internalType": "address",
          "name": "",
          "type": "address"
        }
      ],
      "stateMutability": "view",
      "type": "function"
    },
    {
      "inputs": [
        {
          "internalType": "uint256",
          "name": "tokenId",
          "type": "uint256"
        }
      ],
      "name": "ownerOf",
      "outputs": [
        {
          "internalType": "address",
          "name": "",
          "type": "address"
        }
      ],
      "stateMutability": "view",
      "type": "function"
    },
    {
      "inputs": [],
      "name": "pause",
      "outputs": [],
      "stateMutability": "nonpayable",
      "type": "function"
    },
    {
      "inputs": [],
      "name": "paused",
      "outputs": [
        {
          "internalType": "bool",
          "name": "",
          "type": "bool"
        }
      ],
      "stateMutability": "view",
      "type": "function"
    },
    {
      "inputs": [],
      "name": "renounceOwnership",
      "outputs": [],
      "stateMutability": "nonpayable",
      "type": "function"
    },
    {
      "inputs": [
        {
          "internalType": "address",
          "name": "to",
          "type": "address"
        }
      ],
      "name": "safeMint",
      "outputs": [],
      "stateMutability": "nonpayable",
      "type": "function"
    },
    {
      "inputs": [
        {
          "internalType": "address",
          "name": "from",
          "type": "address"
        },
        {
          "internalType": "address",
          "name": "to",
          "type": "address"
        },
        {
          "internalType": "uint256",
          "name": "tokenId",
          "type": "uint256"
        }
      ],
      "name": "safeTransferFrom",
      "outputs": [],
      "stateMutability": "nonpayable",
      "type": "function"
    },
    {
      "inputs": [
        {
          "internalType": "address",
          "name": "from",
          "type": "address"
        },
        {
          "internalType": "address",
          "name": "to",
          "type": "address"
        },
        {
          "internalType": "uint256",
          "name": "tokenId",
          "type": "uint256"
        },
        {
          "internalType": "bytes",
          "name": "data",
          "type": "bytes"
        }
      ],
      "name": "safeTransferFrom",
      "outputs": [],
      "stateMutability": "nonpayable",
      "type": "function"
    },
    {
      "inputs": [
        {
          "internalType": "address",
          "name": "operator",
          "type": "address"
        },
        {
          "internalType": "bool",
          "name": "approved",
          "type": "bool"
        }
      ],
      "name": "setApprovalForAll",
      "outputs": [],
      "stateMutability": "nonpayable",
      "type": "function"
    },
    {
      "inputs": [
        {
          "internalType": "string",
          "name": "URI",
          "type": "string"
        }
      ],
      "name": "set_metadataURI",
      "outputs": [],
      "stateMutability": "nonpayable",
      "type": "function"
    },
    {
      "inputs": [
        {
          "internalType": "bytes4",
          "name": "interfaceId",
          "type": "bytes4"
        }
      ],
      "name": "supportsInterface",
      "outputs": [
        {
          "internalType": "bool",
          "name": "",
          "type": "bool"
        }
      ],
      "stateMutability": "view",
      "type": "function"
    },
    {
      "inputs": [],
      "name": "symbol",
      "outputs": [
        {
          "internalType": "string",
          "name": "",
          "type": "string"
        }
      ],
      "stateMutability": "view",
      "type": "function"
    },
    {
      "inputs": [
        {
          "internalType": "uint256",
          "name": "tokenId",
          "type": "uint256"
        }
      ],
      "name": "tokenURI",
      "outputs": [
        {
          "internalType": "string",
          "name": "",
          "type": "string"
        }
      ],
      "stateMutability": "view",
      "type": "function"
    },
    {
      "inputs": [
        {
          "internalType": "address",
          "name": "from",
          "type": "address"
        },
        {
          "internalType": "address",
          "name": "to",
          "type": "address"
        },
        {
          "internalType": "uint256",
          "name": "tokenId",
          "type": "uint256"
        }
      ],
      "name": "transferFrom",
      "outputs": [],
      "stateMutability": "nonpayable",
      "type": "function"
    },
    {
      "inputs": [
        {
          "internalType": "address",
          "name": "newOwner",
          "type": "address"
        }
      ],
      "name": "transferOwnership",
      "outputs": [],
      "stateMutability": "nonpayable",
      "type": "function"
    },
    {
      "inputs": [],
      "name": "unpause",
      "outputs": [],
      "stateMutability": "nonpayable",
      "type": "function"
    }
  ],
  "bytecode": "0x60806040523480156200001157600080fd5b506040518060400160405280601781526020017f43727970746f2f57656233204d656574696e67205342540000000000000000008152506040518060400160405280600481526020017f4b4c41420000000000000000000000000000000000000000000000000000000081525081600090805190602001906200009692919062000219565b508060019080519060200190620000af92919062000219565b5050506000600760006101000a81548160ff021916908315150217905550620000ed620000e16200014b60201b60201c565b6200015360201b60201c565b6001600960003373ffffffffffffffffffffffffffffffffffffffff1673ffffffffffffffffffffffffffffffffffffffff16815260200190815260200160002060006101000a81548160ff0219169083151502179055506200032e565b600033905090565b6000600760019054906101000a900473ffffffffffffffffffffffffffffffffffffffff16905081600760016101000a81548173ffffffffffffffffffffffffffffffffffffffff021916908373ffffffffffffffffffffffffffffffffffffffff1602179055508173ffffffffffffffffffffffffffffffffffffffff168173ffffffffffffffffffffffffffffffffffffffff167f8be0079c531659141344cd1fd0a4f28419497f9722a3daafe3b4186f6b6457e060405160405180910390a35050565b8280546200022790620002c9565b90600052602060002090601f0160209004810192826200024b576000855562000297565b82601f106200026657805160ff191683800117855562000297565b8280016001018555821562000297579182015b828111156200029657825182559160200191906001019062000279565b5b509050620002a69190620002aa565b5090565b5b80821115620002c5576000816000905550600101620002ab565b5090565b60006002820490506001821680620002e257607f821691505b60208210811415620002f957620002f8620002ff565b5b50919050565b7f4e487b7100000000000000000000000000000000000000000000000000000000600052602260045260246000fd5b6137cb806200033e6000396000f3fe608060405234801561001057600080fd5b50600436106101a85760003560e01c806370a08231116100f9578063a22cb46511610097578063c87b56dd11610071578063c87b56dd14610469578063d1a64b4114610499578063e985e9c5146104b7578063f2fde38b146104e7576101a8565b8063a22cb46514610413578063b88d4fde1461042f578063c1f2693b1461044b576101a8565b80638da5cb5b116100d35780638da5cb5b1461038b5780639026dee8146103a957806395d89b41146103d9578063962276d4146103f7576101a8565b806370a0823114610347578063715018a6146103775780638456cb5914610381576101a8565b80633f4ba83a116101665780635c975abb116101405780635c975abb146102c157806362d91855146102df5780636352211e146102fb578063704802751461032b576101a8565b80633f4ba83a1461027f57806340d097c31461028957806342842e0e146102a5576101a8565b8062b6849f146101ad57806301ffc9a7146101c957806306fdde03146101f9578063081812fc14610217578063095ea7b31461024757806323b872dd14610263575b600080fd5b6101c760048036038101906101c29190612862565b610503565b005b6101e360048036038101906101de91906128a3565b6105cc565b6040516101f09190612cea565b60405180910390f35b6102016106ae565b60405161020e9190612d05565b60405180910390f35b610231600480360381019061022c9190612936565b610740565b60405161023e9190612c83565b60405180910390f35b610261600480360381019061025c9190612826565b610786565b005b61027d60048036038101906102789190612720565b61089e565b005b6102876108fe565b005b6102a3600480360381019061029e91906126bb565b610910565b005b6102bf60048036038101906102ba9190612720565b610a27565b005b6102c9610a47565b6040516102d69190612cea565b60405180910390f35b6102f960048036038101906102f491906126bb565b610a5e565b005b61031560048036038101906103109190612936565b610ba5565b6040516103229190612c83565b60405180910390f35b610345600480360381019061034091906126bb565b610c57565b005b610361600480360381019061035c91906126bb565b610d9f565b60405161036e9190612f27565b60405180910390f35b61037f610e57565b005b610389610e6b565b005b610393610e7d565b6040516103a09190612c83565b60405180910390f35b6103c360048036038101906103be91906126bb565b610ea7565b6040516103d09190612cea565b60405180910390f35b6103e1610f46565b6040516103ee9190612d05565b60405180910390f35b610411600480360381019061040c91906128f5565b610fd8565b005b61042d600480360381019061042891906127ea565b61104f565b005b6104496004803603810190610444919061276f565b611065565b005b6104536110c7565b6040516104609190612d05565b60405180910390f35b610483600480360381019061047e9190612936565b611159565b6040516104909190612d05565b60405180910390f35b6104a161126c565b6040516104ae9190612d05565b60405180910390f35b6104d160048036038101906104cc91906126e4565b6112fa565b6040516104de9190612cea565b60405180910390f35b61050160048036038101906104fc91906126bb565b61138e565b005b60011515600960003373ffffffffffffffffffffffffffffffffffffffff1673ffffffffffffffffffffffffffffffffffffffff16815260200190815260200160002060009054906101000a900460ff1615151461056057600080fd5b60005b81518110156105c8576105b58282815181106105a8577f4e487b7100000000000000000000000000000000000000000000000000000000600052603260045260246000fd5b6020026020010151610910565b80806105c09061320c565b915050610563565b5050565b60007f80ac58cd000000000000000000000000000000000000000000000000000000007bffffffffffffffffffffffffffffffffffffffffffffffffffffffff1916827bffffffffffffffffffffffffffffffffffffffffffffffffffffffff1916148061069757507f5b5e139f000000000000000000000000000000000000000000000000000000007bffffffffffffffffffffffffffffffffffffffffffffffffffffffff1916827bffffffffffffffffffffffffffffffffffffffffffffffffffffffff1916145b806106a757506106a682611412565b5b9050919050565b6060600080546106bd906131a9565b80601f01602080910402602001604051908101604052809291908181526020018280546106e9906131a9565b80156107365780601f1061070b57610100808354040283529160200191610736565b820191906000526020600020905b81548152906001019060200180831161071957829003601f168201915b5050505050905090565b600061074b8261147c565b6004600083815260200190815260200160002060009054906101000a900473ffffffffffffffffffffffffffffffffffffffff169050919050565b600061079182610ba5565b90508073ffffffffffffffffffffffffffffffffffffffff168373ffffffffffffffffffffffffffffffffffffffff161415610802576040517f08c379a00000000000000000000000000000000000000000000000000000000081526004016107f990612ee7565b60405180910390fd5b8073ffffffffffffffffffffffffffffffffffffffff166108216114c7565b73ffffffffffffffffffffffffffffffffffffffff161480610850575061084f8161084a6114c7565b6112fa565b5b61088f576040517f08c379a000000000000000000000000000000000000000000000000000000000815260040161088690612e67565b60405180910390fd5b61089983836114cf565b505050565b6108af6108a96114c7565b82611588565b6108ee576040517f08c379a00000000000000000000000000000000000000000000000000000000081526004016108e590612f07565b60405180910390fd5b6108f983838361161d565b505050565b610906611884565b61090e611902565b565b60011515600960003373ffffffffffffffffffffffffffffffffffffffff1673ffffffffffffffffffffffffffffffffffffffff16815260200190815260200160002060009054906101000a900460ff1615151461096d57600080fd5b60006109796008611965565b90506109856008611973565b61098f8282611989565b610a2381600a80546109a0906131a9565b80601f01602080910402602001604051908101604052809291908181526020018280546109cc906131a9565b8015610a195780601f106109ee57610100808354040283529160200191610a19565b820191906000526020600020905b8154815290600101906020018083116109fc57829003601f168201915b50505050506119a7565b5050565b610a4283838360405180602001604052806000815250611065565b505050565b6000600760009054906101000a900460ff16905090565b60011515600960003373ffffffffffffffffffffffffffffffffffffffff1673ffffffffffffffffffffffffffffffffffffffff16815260200190815260200160002060009054906101000a900460ff16151514610abb57600080fd5b600073ffffffffffffffffffffffffffffffffffffffff168173ffffffffffffffffffffffffffffffffffffffff1614158015610b415750600960008273ffffffffffffffffffffffffffffffffffffffff1673ffffffffffffffffffffffffffffffffffffffff16815260200190815260200160002060009054906101000a900460ff165b610b4a57600080fd5b6000600960008373ffffffffffffffffffffffffffffffffffffffff1673ffffffffffffffffffffffffffffffffffffffff16815260200190815260200160002060006101000a81548160ff02191690831515021790555050565b6000806002600084815260200190815260200160002060009054906101000a900473ffffffffffffffffffffffffffffffffffffffff169050600073ffffffffffffffffffffffffffffffffffffffff168173ffffffffffffffffffffffffffffffffffffffff161415610c4e576040517f08c379a0000000000000000000000000000000000000000000000000000000008152600401610c4590612ec7565b60405180910390fd5b80915050919050565b60011515600960003373ffffffffffffffffffffffffffffffffffffffff1673ffffffffffffffffffffffffffffffffffffffff16815260200190815260200160002060009054906101000a900460ff16151514610cb457600080fd5b600073ffffffffffffffffffffffffffffffffffffffff168173ffffffffffffffffffffffffffffffffffffffff1614158015610d3b5750600960008273ffffffffffffffffffffffffffffffffffffffff1673ffffffffffffffffffffffffffffffffffffffff16815260200190815260200160002060009054906101000a900460ff16155b610d4457600080fd5b6001600960008373ffffffffffffffffffffffffffffffffffffffff1673ffffffffffffffffffffffffffffffffffffffff16815260200190815260200160002060006101000a81548160ff02191690831515021790555050565b60008073ffffffffffffffffffffffffffffffffffffffff168273ffffffffffffffffffffffffffffffffffffffff161415610e10576040517f08c379a0000000000000000000000000000000000000000000000000000000008152600401610e0790612e27565b60405180910390fd5b600360008373ffffffffffffffffffffffffffffffffffffffff1673ffffffffffffffffffffffffffffffffffffffff168152602001908152602001600020549050919050565b610e5f611884565b610e696000611a1b565b565b610e73611884565b610e7b611ae1565b565b6000600760019054906101000a900473ffffffffffffffffffffffffffffffffffffffff16905090565b60008073ffffffffffffffffffffffffffffffffffffffff168273ffffffffffffffffffffffffffffffffffffffff1614158015610f2e5750600960008373ffffffffffffffffffffffffffffffffffffffff1673ffffffffffffffffffffffffffffffffffffffff16815260200190815260200160002060009054906101000a900460ff165b15610f3c5760019050610f41565b600090505b919050565b606060018054610f55906131a9565b80601f0160208091040260200160405190810160405280929190818152602001828054610f81906131a9565b8015610fce5780601f10610fa357610100808354040283529160200191610fce565b820191906000526020600020905b815481529060010190602001808311610fb157829003601f168201915b5050505050905090565b60011515600960003373ffffffffffffffffffffffffffffffffffffffff1673ffffffffffffffffffffffffffffffffffffffff16815260200190815260200160002060009054906101000a900460ff1615151461103557600080fd5b80600a908051906020019061104b929190612449565b5050565b61106161105a6114c7565b8383611b44565b5050565b6110766110706114c7565b83611588565b6110b5576040517f08c379a00000000000000000000000000000000000000000000000000000000081526004016110ac90612f07565b60405180910390fd5b6110c184848484611cb1565b50505050565b6060600a80546110d6906131a9565b80601f0160208091040260200160405190810160405280929190818152602001828054611102906131a9565b801561114f5780601f106111245761010080835404028352916020019161114f565b820191906000526020600020905b81548152906001019060200180831161113257829003601f168201915b5050505050905090565b60606111648261147c565b6000600660008481526020019081526020016000208054611184906131a9565b80601f01602080910402602001604051908101604052809291908181526020018280546111b0906131a9565b80156111fd5780601f106111d2576101008083540402835291602001916111fd565b820191906000526020600020905b8154815290600101906020018083116111e057829003601f168201915b50505050509050600061120e611d0d565b9050600081511415611224578192505050611267565b600082511115611259578082604051602001611241929190612c5f565b60405160208183030381529060405292505050611267565b61126284611d24565b925050505b919050565b600a8054611279906131a9565b80601f01602080910402602001604051908101604052809291908181526020018280546112a5906131a9565b80156112f25780601f106112c7576101008083540402835291602001916112f2565b820191906000526020600020905b8154815290600101906020018083116112d557829003601f168201915b505050505081565b6000600560008473ffffffffffffffffffffffffffffffffffffffff1673ffffffffffffffffffffffffffffffffffffffff16815260200190815260200160002060008373ffffffffffffffffffffffffffffffffffffffff1673ffffffffffffffffffffffffffffffffffffffff16815260200190815260200160002060009054906101000a900460ff16905092915050565b611396611884565b600073ffffffffffffffffffffffffffffffffffffffff168173ffffffffffffffffffffffffffffffffffffffff161415611406576040517f08c379a00000000000000000000000000000000000000000000000000000000081526004016113fd90612d67565b60405180910390fd5b61140f81611a1b565b50565b60007f01ffc9a7000000000000000000000000000000000000000000000000000000007bffffffffffffffffffffffffffffffffffffffffffffffffffffffff1916827bffffffffffffffffffffffffffffffffffffffffffffffffffffffff1916149050919050565b61148581611d8c565b6114c4576040517f08c379a00000000000000000000000000000000000000000000000000000000081526004016114bb90612ec7565b60405180910390fd5b50565b600033905090565b816004600083815260200190815260200160002060006101000a81548173ffffffffffffffffffffffffffffffffffffffff021916908373ffffffffffffffffffffffffffffffffffffffff160217905550808273ffffffffffffffffffffffffffffffffffffffff1661154283610ba5565b73ffffffffffffffffffffffffffffffffffffffff167f8c5be1e5ebec7d5bd14f71427d1e84f3dd0314c0f7b2291e5b200ac8c7c3b92560405160405180910390a45050565b60008061159483610ba5565b90508073ffffffffffffffffffffffffffffffffffffffff168473ffffffffffffffffffffffffffffffffffffffff1614806115d657506115d581856112fa565b5b8061161457508373ffffffffffffffffffffffffffffffffffffffff166115fc84610740565b73ffffffffffffffffffffffffffffffffffffffff16145b91505092915050565b8273ffffffffffffffffffffffffffffffffffffffff1661163d82610ba5565b73ffffffffffffffffffffffffffffffffffffffff1614611693576040517f08c379a000000000000000000000000000000000000000000000000000000000815260040161168a90612d87565b60405180910390fd5b600073ffffffffffffffffffffffffffffffffffffffff168273ffffffffffffffffffffffffffffffffffffffff161415611703576040517f08c379a00000000000000000000000000000000000000000000000000000000081526004016116fa90612dc7565b60405180910390fd5b61170e838383611df8565b6117196000826114cf565b6001600360008573ffffffffffffffffffffffffffffffffffffffff1673ffffffffffffffffffffffffffffffffffffffff168152602001908152602001600020600082825461176991906130bf565b925050819055506001600360008473ffffffffffffffffffffffffffffffffffffffff1673ffffffffffffffffffffffffffffffffffffffff16815260200190815260200160002060008282546117c09190613038565b92505081905550816002600083815260200190815260200160002060006101000a81548173ffffffffffffffffffffffffffffffffffffffff021916908373ffffffffffffffffffffffffffffffffffffffff160217905550808273ffffffffffffffffffffffffffffffffffffffff168473ffffffffffffffffffffffffffffffffffffffff167fddf252ad1be2c89b69c2b068fc378daa952ba7f163c4a11628f55a4df523b3ef60405160405180910390a461187f838383611e10565b505050565b61188c6114c7565b73ffffffffffffffffffffffffffffffffffffffff166118aa610e7d565b73ffffffffffffffffffffffffffffffffffffffff1614611900576040517f08c379a00000000000000000000000000000000000000000000000000000000081526004016118f790612ea7565b60405180910390fd5b565b61190a611e15565b6000600760006101000a81548160ff0219169083151502179055507f5db9ee0a495bf2e6ff9c91a7834c1ba4fdd244a5e8aa4e537bd38aeae4b073aa61194e6114c7565b60405161195b9190612c83565b60405180910390a1565b600081600001549050919050565b6001816000016000828254019250508190555050565b6119a3828260405180602001604052806000815250611e5e565b5050565b6119b082611d8c565b6119ef576040517f08c379a00000000000000000000000000000000000000000000000000000000081526004016119e690612e47565b60405180910390fd5b80600660008481526020019081526020016000209080519060200190611a16929190612449565b505050565b6000600760019054906101000a900473ffffffffffffffffffffffffffffffffffffffff16905081600760016101000a81548173ffffffffffffffffffffffffffffffffffffffff021916908373ffffffffffffffffffffffffffffffffffffffff1602179055508173ffffffffffffffffffffffffffffffffffffffff168173ffffffffffffffffffffffffffffffffffffffff167f8be0079c531659141344cd1fd0a4f28419497f9722a3daafe3b4186f6b6457e060405160405180910390a35050565b611ae9611eb9565b6001600760006101000a81548160ff0219169083151502179055507f62e78cea01bee320cd4e420270b5ea74000d11b0c9f74754ebdbfc544b05a258611b2d6114c7565b604051611b3a9190612c83565b60405180910390a1565b8173ffffffffffffffffffffffffffffffffffffffff168373ffffffffffffffffffffffffffffffffffffffff161415611bb3576040517f08c379a0000000000000000000000000000000000000000000000000000000008152600401611baa90612de7565b60405180910390fd5b80600560008573ffffffffffffffffffffffffffffffffffffffff1673ffffffffffffffffffffffffffffffffffffffff16815260200190815260200160002060008473ffffffffffffffffffffffffffffffffffffffff1673ffffffffffffffffffffffffffffffffffffffff16815260200190815260200160002060006101000a81548160ff0219169083151502179055508173ffffffffffffffffffffffffffffffffffffffff168373ffffffffffffffffffffffffffffffffffffffff167f17307eab39ab6107e8899845ad3d59bd9653f200f220920489ca2b5937696c3183604051611ca49190612cea565b60405180910390a3505050565b611cbc84848461161d565b611cc884848484611f03565b611d07576040517f08c379a0000000000000000000000000000000000000000000000000000000008152600401611cfe90612d47565b60405180910390fd5b50505050565b606060405180602001604052806000815250905090565b6060611d2f8261147c565b6000611d39611d0d565b90506000815111611d595760405180602001604052806000815250611d84565b80611d638461209a565b604051602001611d74929190612c5f565b6040516020818303038152906040525b915050919050565b60008073ffffffffffffffffffffffffffffffffffffffff166002600084815260200190815260200160002060009054906101000a900473ffffffffffffffffffffffffffffffffffffffff1673ffffffffffffffffffffffffffffffffffffffff1614159050919050565b611e00611eb9565b611e0b838383612247565b505050565b505050565b611e1d610a47565b611e5c576040517f08c379a0000000000000000000000000000000000000000000000000000000008152600401611e5390612d27565b60405180910390fd5b565b611e68838361224c565b611e756000848484611f03565b611eb4576040517f08c379a0000000000000000000000000000000000000000000000000000000008152600401611eab90612d47565b60405180910390fd5b505050565b611ec1610a47565b15611f01576040517f08c379a0000000000000000000000000000000000000000000000000000000008152600401611ef890612e07565b60405180910390fd5b565b6000611f248473ffffffffffffffffffffffffffffffffffffffff16612426565b1561208d578373ffffffffffffffffffffffffffffffffffffffff1663150b7a02611f4d6114c7565b8786866040518563ffffffff1660e01b8152600401611f6f9493929190612c9e565b602060405180830381600087803b158015611f8957600080fd5b505af1925050508015611fba57506040513d601f19601f82011682018060405250810190611fb791906128cc565b60015b61203d573d8060008114611fea576040519150601f19603f3d011682016040523d82523d6000602084013e611fef565b606091505b50600081511415612035576040517f08c379a000000000000000000000000000000000000000000000000000000000815260040161202c90612d47565b60405180910390fd5b805181602001fd5b63150b7a0260e01b7bffffffffffffffffffffffffffffffffffffffffffffffffffffffff1916817bffffffffffffffffffffffffffffffffffffffffffffffffffffffff191614915050612092565b600190505b949350505050565b606060008214156120e2576040518060400160405280600181526020017f30000000000000000000000000000000000000000000000000000000000000008152509050612242565b600082905060005b600082146121145780806120fd9061320c565b915050600a8261210d919061308e565b91506120ea565b60008167ffffffffffffffff811115612156577f4e487b7100000000000000000000000000000000000000000000000000000000600052604160045260246000fd5b6040519080825280601f01601f1916602001820160405280156121885781602001600182028036833780820191505090505b5090505b6000851461223b576001826121a191906130bf565b9150600a856121b09190613255565b60306121bc9190613038565b60f81b8183815181106121f8577f4e487b7100000000000000000000000000000000000000000000000000000000600052603260045260246000fd5b60200101907effffffffffffffffffffffffffffffffffffffffffffffffffffffffffffff1916908160001a905350600a85612234919061308e565b945061218c565b8093505050505b919050565b505050565b600073ffffffffffffffffffffffffffffffffffffffff168273ffffffffffffffffffffffffffffffffffffffff1614156122bc576040517f08c379a00000000000000000000000000000000000000000000000000000000081526004016122b390612e87565b60405180910390fd5b6122c581611d8c565b15612305576040517f08c379a00000000000000000000000000000000000000000000000000000000081526004016122fc90612da7565b60405180910390fd5b61231160008383611df8565b6001600360008473ffffffffffffffffffffffffffffffffffffffff1673ffffffffffffffffffffffffffffffffffffffff16815260200190815260200160002060008282546123619190613038565b92505081905550816002600083815260200190815260200160002060006101000a81548173ffffffffffffffffffffffffffffffffffffffff021916908373ffffffffffffffffffffffffffffffffffffffff160217905550808273ffffffffffffffffffffffffffffffffffffffff16600073ffffffffffffffffffffffffffffffffffffffff167fddf252ad1be2c89b69c2b068fc378daa952ba7f163c4a11628f55a4df523b3ef60405160405180910390a461242260008383611e10565b5050565b6000808273ffffffffffffffffffffffffffffffffffffffff163b119050919050565b828054612455906131a9565b90600052602060002090601f01602090048101928261247757600085556124be565b82601f1061249057805160ff19168380011785556124be565b828001600101855582156124be579182015b828111156124bd5782518255916020019190600101906124a2565b5b5090506124cb91906124cf565b5090565b5b808211156124e85760008160009055506001016124d0565b5090565b60006124ff6124fa84612f67565b612f42565b9050808382526020820190508285602086028201111561251e57600080fd5b60005b8581101561254e578161253488826125d4565b845260208401935060208301925050600181019050612521565b5050509392505050565b600061256b61256684612f93565b612f42565b90508281526020810184848401111561258357600080fd5b61258e848285613167565b509392505050565b60006125a96125a484612fc4565b612f42565b9050828152602081018484840111156125c157600080fd5b6125cc848285613167565b509392505050565b6000813590506125e381613739565b92915050565b600082601f8301126125fa57600080fd5b813561260a8482602086016124ec565b91505092915050565b60008135905061262281613750565b92915050565b60008135905061263781613767565b92915050565b60008151905061264c81613767565b92915050565b600082601f83011261266357600080fd5b8135612673848260208601612558565b91505092915050565b600082601f83011261268d57600080fd5b813561269d848260208601612596565b91505092915050565b6000813590506126b58161377e565b92915050565b6000602082840312156126cd57600080fd5b60006126db848285016125d4565b91505092915050565b600080604083850312156126f757600080fd5b6000612705858286016125d4565b9250506020612716858286016125d4565b9150509250929050565b60008060006060848603121561273557600080fd5b6000612743868287016125d4565b9350506020612754868287016125d4565b9250506040612765868287016126a6565b9150509250925092565b6000806000806080858703121561278557600080fd5b6000612793878288016125d4565b94505060206127a4878288016125d4565b93505060406127b5878288016126a6565b925050606085013567ffffffffffffffff8111156127d257600080fd5b6127de87828801612652565b91505092959194509250565b600080604083850312156127fd57600080fd5b600061280b858286016125d4565b925050602061281c85828601612613565b9150509250929050565b6000806040838503121561283957600080fd5b6000612847858286016125d4565b9250506020612858858286016126a6565b9150509250929050565b60006020828403121561287457600080fd5b600082013567ffffffffffffffff81111561288e57600080fd5b61289a848285016125e9565b91505092915050565b6000602082840312156128b557600080fd5b60006128c384828501612628565b91505092915050565b6000602082840312156128de57600080fd5b60006128ec8482850161263d565b91505092915050565b60006020828403121561290757600080fd5b600082013567ffffffffffffffff81111561292157600080fd5b61292d8482850161267c565b91505092915050565b60006020828403121561294857600080fd5b6000612956848285016126a6565b91505092915050565b612968816130f3565b82525050565b61297781613105565b82525050565b600061298882612ff5565b612992818561300b565b93506129a2818560208601613176565b6129ab81613342565b840191505092915050565b60006129c182613000565b6129cb818561301c565b93506129db818560208601613176565b6129e481613342565b840191505092915050565b60006129fa82613000565b612a04818561302d565b9350612a14818560208601613176565b80840191505092915050565b6000612a2d60148361301c565b9150612a3882613353565b602082019050919050565b6000612a5060328361301c565b9150612a5b8261337c565b604082019050919050565b6000612a7360268361301c565b9150612a7e826133cb565b604082019050919050565b6000612a9660258361301c565b9150612aa18261341a565b604082019050919050565b6000612ab9601c8361301c565b9150612ac482613469565b602082019050919050565b6000612adc60248361301c565b9150612ae782613492565b604082019050919050565b6000612aff60198361301c565b9150612b0a826134e1565b602082019050919050565b6000612b2260108361301c565b9150612b2d8261350a565b602082019050919050565b6000612b4560298361301c565b9150612b5082613533565b604082019050919050565b6000612b68602e8361301c565b9150612b7382613582565b604082019050919050565b6000612b8b603e8361301c565b9150612b96826135d1565b604082019050919050565b6000612bae60208361301c565b9150612bb982613620565b602082019050919050565b6000612bd160208361301c565b9150612bdc82613649565b602082019050919050565b6000612bf460188361301c565b9150612bff82613672565b602082019050919050565b6000612c1760218361301c565b9150612c228261369b565b604082019050919050565b6000612c3a602e8361301c565b9150612c45826136ea565b604082019050919050565b612c598161315d565b82525050565b6000612c6b82856129ef565b9150612c7782846129ef565b91508190509392505050565b6000602082019050612c98600083018461295f565b92915050565b6000608082019050612cb3600083018761295f565b612cc0602083018661295f565b612ccd6040830185612c50565b8181036060830152612cdf818461297d565b905095945050505050565b6000602082019050612cff600083018461296e565b92915050565b60006020820190508181036000830152612d1f81846129b6565b905092915050565b60006020820190508181036000830152612d4081612a20565b9050919050565b60006020820190508181036000830152612d6081612a43565b9050919050565b60006020820190508181036000830152612d8081612a66565b9050919050565b60006020820190508181036000830152612da081612a89565b9050919050565b60006020820190508181036000830152612dc081612aac565b9050919050565b60006020820190508181036000830152612de081612acf565b9050919050565b60006020820190508181036000830152612e0081612af2565b9050919050565b60006020820190508181036000830152612e2081612b15565b9050919050565b60006020820190508181036000830152612e4081612b38565b9050919050565b60006020820190508181036000830152612e6081612b5b565b9050919050565b60006020820190508181036000830152612e8081612b7e565b9050919050565b60006020820190508181036000830152612ea081612ba1565b9050919050565b60006020820190508181036000830152612ec081612bc4565b9050919050565b60006020820190508181036000830152612ee081612be7565b9050919050565b60006020820190508181036000830152612f0081612c0a565b9050919050565b60006020820190508181036000830152612f2081612c2d565b9050919050565b6000602082019050612f3c6000830184612c50565b92915050565b6000612f4c612f5d565b9050612f5882826131db565b919050565b6000604051905090565b600067ffffffffffffffff821115612f8257612f81613313565b5b602082029050602081019050919050565b600067ffffffffffffffff821115612fae57612fad613313565b5b612fb782613342565b9050602081019050919050565b600067ffffffffffffffff821115612fdf57612fde613313565b5b612fe882613342565b9050602081019050919050565b600081519050919050565b600081519050919050565b600082825260208201905092915050565b600082825260208201905092915050565b600081905092915050565b60006130438261315d565b915061304e8361315d565b9250827fffffffffffffffffffffffffffffffffffffffffffffffffffffffffffffffff0382111561308357613082613286565b5b828201905092915050565b60006130998261315d565b91506130a48361315d565b9250826130b4576130b36132b5565b5b828204905092915050565b60006130ca8261315d565b91506130d58361315d565b9250828210156130e8576130e7613286565b5b828203905092915050565b60006130fe8261313d565b9050919050565b60008115159050919050565b60007fffffffff0000000000000000000000000000000000000000000000000000000082169050919050565b600073ffffffffffffffffffffffffffffffffffffffff82169050919050565b6000819050919050565b82818337600083830152505050565b60005b83811015613194578082015181840152602081019050613179565b838111156131a3576000848401525b50505050565b600060028204905060018216806131c157607f821691505b602082108114156131d5576131d46132e4565b5b50919050565b6131e482613342565b810181811067ffffffffffffffff8211171561320357613202613313565b5b80604052505050565b60006132178261315d565b91507fffffffffffffffffffffffffffffffffffffffffffffffffffffffffffffffff82141561324a57613249613286565b5b600182019050919050565b60006132608261315d565b915061326b8361315d565b92508261327b5761327a6132b5565b5b828206905092915050565b7f4e487b7100000000000000000000000000000000000000000000000000000000600052601160045260246000fd5b7f4e487b7100000000000000000000000000000000000000000000000000000000600052601260045260246000fd5b7f4e487b7100000000000000000000000000000000000000000000000000000000600052602260045260246000fd5b7f4e487b7100000000000000000000000000000000000000000000000000000000600052604160045260246000fd5b6000601f19601f8301169050919050565b7f5061757361626c653a206e6f7420706175736564000000000000000000000000600082015250565b7f4552433732313a207472616e7366657220746f206e6f6e20455243373231526560008201527f63656976657220696d706c656d656e7465720000000000000000000000000000602082015250565b7f4f776e61626c653a206e6577206f776e657220697320746865207a65726f206160008201527f6464726573730000000000000000000000000000000000000000000000000000602082015250565b7f4552433732313a207472616e736665722066726f6d20696e636f72726563742060008201527f6f776e6572000000000000000000000000000000000000000000000000000000602082015250565b7f4552433732313a20746f6b656e20616c7265616479206d696e74656400000000600082015250565b7f4552433732313a207472616e7366657220746f20746865207a65726f2061646460008201527f7265737300000000000000000000000000000000000000000000000000000000602082015250565b7f4552433732313a20617070726f766520746f2063616c6c657200000000000000600082015250565b7f5061757361626c653a2070617573656400000000000000000000000000000000600082015250565b7f4552433732313a2061646472657373207a65726f206973206e6f74206120766160008201527f6c6964206f776e65720000000000000000000000000000000000000000000000602082015250565b7f45524337323155524953746f726167653a2055524920736574206f66206e6f6e60008201527f6578697374656e7420746f6b656e000000000000000000000000000000000000602082015250565b7f4552433732313a20617070726f76652063616c6c6572206973206e6f7420746f60008201527f6b656e206f776e6572206e6f7220617070726f76656420666f7220616c6c0000602082015250565b7f4552433732313a206d696e7420746f20746865207a65726f2061646472657373600082015250565b7f4f776e61626c653a2063616c6c6572206973206e6f7420746865206f776e6572600082015250565b7f4552433732313a20696e76616c696420746f6b656e2049440000000000000000600082015250565b7f4552433732313a20617070726f76616c20746f2063757272656e74206f776e6560008201527f7200000000000000000000000000000000000000000000000000000000000000602082015250565b7f4552433732313a2063616c6c6572206973206e6f7420746f6b656e206f776e6560008201527f72206e6f7220617070726f766564000000000000000000000000000000000000602082015250565b613742816130f3565b811461374d57600080fd5b50565b61375981613105565b811461376457600080fd5b50565b61377081613111565b811461377b57600080fd5b50565b6137878161315d565b811461379257600080fd5b5056fea2646970667358221220e1221401ac21b05eca24982f1c20a3d2092f76dc0e70934c41e4ab432233242264736f6c63430008040033",
  "linkReferences": {},
  "deployedLinkReferences": {}
}